:020000040800F2
:10000000B00B002031350008393500083B350008B9
:100010003D3500083F35000841350008000000006C
:100020000000000000000000000000004335000850
:100030004535000800000000473500084935000834
:100040004B3500084B3500084B3500084B35000890
:100050004B3500084B3500084B3500084B35000880
:100060004B3500084B3500084B3500084B35000870
:100070004B3500084B3500084B3500084B35000860
:100080004B3500084B3500084B3500084B35000850
:100090004B3500084B3500084B3500084B35000840
:1000A0004B3500084B3500084B3500084B35000830
:1000B0004B3500084B1200084B3500084B35000843
:1000C0004B3500084B3500084B3500084B35000810
:1000D0004B350008991A00084B3500084B350008CD
:1000E0004B3500084B3500084B35000800F002F88E
:1000F00000F05AF80AA090E8000C82448344AAF168
:100100000107DA4501D100F04FF8AFF2090EBAE865
:100110000F0013F0010F18BFFB1A43F0010318473B
:100120001C3900003C3900000A444FF0000C10F864
:10013000013B13F0070408BF10F8014B1D1108BF65
:1001400010F8015B641E05D010F8016B641E01F805
:10015000016BF9D113F0080F1EBF10F8014BAD1C55
:100160000C1B09D16D1E58BF01F801CBFAD505E073
:1001700014F8016B01F8016B6D1EF9D59142D6D3CD
:10018000704700000023002400250026103A28BFF5
:1001900078C1FBD8520728BF30C148BF0B607047F9
:1001A0001FB51FBD10B510BD03F0D7FA1146FFF7FC
:1001B000F7FF00F073F803F0F5FA03B4FFF7F2FF6E
:1001C00003BC00F001F80000014600BF704770B5A5
:1001D00004460D4600BF40212D4803F04FF900288A
:1001E000F9D0E1B22A4803F0DBF8204670BD4FF0A9
:1001F000E020006920F004004FF0E02108610920B0
:10020000244908700846007800EB4001C1EBC0109B
:100210004FF6FF7101EAC0001F4908807047014690
:100220001D4A12884A434FF0E0235A6100229A6126
:1002300001221A6100BF4FF0E022106900F00102B4
:100240001AB100F48032002AF5D000224FF0E023EA
:100250001A619A61704701460E4A12784A434FF07C
:10026000E0235A6100229A6101221A6100BF4FF017
:10027000E022106900F001021AB100F48032002A75
:10028000F5D000224FF0E0231A619A617047000018
:10029000003801400000002002000020A2B000BF92
:1002A00000BF00F080FA00240BE0002012A941F802
:1002B00024000AA921F8140002A921F81400601CE6
:1002C000C4B2102CF1DB00F029FC49E001F045F943
:1002D000FE490870084600782A280BD1FC49032003
:1002E00000F08AFBFB48006808B9012000E000200C
:1002F000F8490860F548007823280BD1F649032017
:1003000000F07AFBF348006808B9012000E0002003
:10031000F0490860ED48007844280BD1EF490320EC
:1003200000F06AFBEB48006808B9012000E00020FB
:10033000E8490860EA48008840B10020E94D009093
:100340002B79EA78A978687801F03FF8E4480088CA
:1003500030B90020034602460146009001F035F80E
:10036000B4E7002000BFE4E0DF49095C06297AD049
:1003700006DC062973D2DFE801F0101F2F40506021
:1003800009296DD004DC07297DD0082967D189E0CF
:10039000452967D04629F9D1B3E00021D34A11702D
:1003A00000228100491CD14B5A548100891C5A54A7
:1003B0008100C91C5A54B4E00021CC4B03F8201032
:1003C00000228100491C5A548100891C5A54012280
:1003D0008100C91C5A54A4E00021C44B03F820102A
:1003E00000228100491C5A5401228100891C5A5460
:1003F00000228100C91C5A5493E00021BB4B03F832
:10040000201000228100491C5A5401228100891CBD
:100410005A548100C91C5A5483E00021B34B03F89D
:10042000201001228100491C5A5400228100891C9D
:100430005A548100C91C5A5473E00021AB4B03F895
:10044000201001228100491C5A5400228100891C7D
:100450005A5401228100C91C5A5462E003E05FE053
:100460002FE010E03DE00021A04B03F82010012216
:100470008100491C5A548100891C5A540022810071
:10048000C91C5A544DE00021984B03F8201001225A
:100490008100491C5A548100891C5A548100C91C8E
:1004A0005A543EE00121914B03F8201000228100B4
:1004B000491C5A548100891C5A548100C91C5A5441
:1004C0002FE00121894B03F8201000228100491CF4
:1004D0005A548100891C5A5401228100C91C5A5463
:1004E0001FE00121814B03F8201001228100491CEB
:1004F0005A548100891C5A5400228100C91C5A5444
:100500000FE00121794B03F8201001228100491CE2
:100510005A548100891C5A548100C91C5A5400E065
:1005200000BF00BF72490978491C714A1170411C13
:10053000C8B20628FFF618AF704710B5002000219A
:1005400000BF00BFF7E0694A525C012A67D1694ADF
:1005500032F81020684B23F81020664B421C33F809
:100560001230654C24F81230624B821C33F8123082
:1005700024F812305F4BC21C33F8123024F81230CA
:100580005C4B021D33F8123024F81230594B421DD7
:1005900033F8123024F81230564B821D33F81230E3
:1005A00024F81230534BC21D33F8123024F81230A5
:1005B000504B521C33F8123024F812304D4B521C61
:1005C00033F8123024F812304A4B521C33F81230F0
:1005D00024F81230474B521C33F8123024F81230F2
:1005E000444B521C33F8123024F81230414B521C49
:1005F00033F8123024F812303E4B521C33F81230CC
:1006000024F812303B4B521C33F8123024F81230CD
:10061000384B521C33F8123024F8123086E0334A3B
:10062000525C002A51D1354A32F81020324B23F85F
:100630001020324B421C33F812302F4C24F8123069
:100640002E4B821C33F8123024F812302B4BC21C74
:1006500033F8123024F81230284B021D33F81230D0
:1006600024F81230254B421D33F8123024F8123092
:10067000224B821D33F8123024F812301F4BC21D5A
:1006800033F8123024F812301C4B521C33F812305D
:1006900024F81230194B521C33F8123024F812305F
:1006A000164B521C33F8123024F81230134B521CE4
:1006B00033F8123024F81230104B521C33F8123039
:1006C00024F812300D4B521C1AE02FE008000020D5
:1006D000002D3101B4012242C0F35E0140787D015A
:1006E0001001002088040020550000204001002057
:1006F000530000200E000020580100203000002090
:1007000033F8123024F812300E4B521C33F81230EA
:1007100024F812300B4B521C33F8123024F81230EC
:10072000084B521C33F8123024F8123000F1110239
:1007300090B24A1C91B2B0F5CC7F02DA1829FFF6CC
:1007400002AF10BD3000002010B501211C2001F0C7
:1007500079FD0121084601F075FD0121880301F0B2
:1007600071FDFFF744FD10BD08B50121194801F0E6
:100770007EFB4FF6FF70ADF8000001208DF80200FF
:1007800010208DF803006946134801F09FFA4FF6D8
:10079000FF70ADF8000010208DF8030069460F4887
:1007A00001F094FA08BD10B5FFF7CEFFFFF7DCFFAC
:1007B00000F074FD00F088FD00F05AFE4FF4E130C7
:1007C00001F01EF941F61F4140F2CF7000F010FD1C
:1007D00010BD000000023000000C01400008014084
:1007E00000EB4001880000BF011EA0F10100FBD119
:1007F000704700B50020F84908600220FFF7F0FFBD
:100800000120F649C1F8AC010420FFF7E9FF002000
:10081000F149086000BD2DE9F04705460E46174630
:1008200098464FF00009CA4600240023A94600203C
:10083000EB490860E949C1F8B00100BF18E00020A9
:10084000E749086009F08000802804D10120E249CE
:100850001C39086003E00020DF491C3908600120D2
:10086000DF4908604FEA49604FEA1069581CC3B27B
:10087000082BE4DB0020DA490860002423E017F8A5
:1008800004A0002318E00020D54908600AF0800089
:10089000802804D10120D0491C39086003E00020E1
:1008A000CD491C3908600120CD4908604FEA4A60F3
:1008B0004FEA106A581CC3B2082BE4DB0020C84979
:1008C0000860601CC4B2B442D9DBB8F1010F01D199
:1008D000FFF78FFF0120C049091D0860BDE8F087C0
:1008E00078B504460E460020009046F48055E8B2E4
:1008F0008DF8020028128DF8010064B90123B94A6D
:1009000019460020FFF787FF01236A4603210620CE
:10091000FFF781FF2BE0012C0CD10123B24A1946CD
:100920000020FFF778FF01236A4603210620FFF726
:1009300072FF1CE0022C0CD10123AC4A19460020A6
:10094000FFF769FF01236A4603210620FFF763FFD3
:100950000DE0032C0BD10123A54A19460020FFF717
:100960005AFF01236A4603210620FFF754FF78BD92
:1009700070B504460D4600262E469E494E70301234
:10098000087064B90023974A01211846FFF743FF16
:100990000023984A02210520FFF73DFF2BE0012CA0
:1009A0000CD10023904A01211846FFF734FF0023A1
:1009B000904A02210520FFF72EFF1CE0022C0CD1EB
:1009C00000238A4A01211846FFF725FF0023894AA0
:1009D00002210520FFF71FFF0DE0032C0BD10023A0
:1009E000834A01211846FFF716FF0023814A02219E
:1009F0000520FFF710FF70BD2DE9F84F04468A4629
:100A000000200090504602F008FF07467A4A7B4BD0
:100A100002F016FF054602F0D3FE814609F0FF0002
:100A20008DF803004FEA19208DF802004FEA1940B3
:100A30008DF801004FEA19608DF8000064B90123B8
:100A4000684A19460020FFF7E6FE01236A460421A2
:100A50000846FFF7E0FE2BE0012C0CD10123624A8F
:100A600019460020FFF7D7FE01236A4604210846F5
:100A7000FFF7D1FE1CE0022C0CD101235B4A194682
:100A80000020FFF7C8FE01236A4604210846FFF74D
:100A9000C2FE0DE0032C0BD10123554A194600205C
:100AA000FFF7B9FE03236A4604210846FFF7B3FEA9
:100AB000BDE8F88F00B500204949091F08600120F2
:100AC000FFF78EFE01204E49C1F8B4011E20FFF74A
:100AD00087FE00204249091F086000BD00204049F0
:100AE0000839086001203D49C1F8B00100203C49A7
:100AF00008603949086038492C390860091D0860C8
:100B0000091D0860091D0860091D0860091D0860AD
:100B1000091D08603149C1F89C01704710B5FFF705
:100B2000DDFFFFF7C7FF0123364A03211846FFF711
:100B300072FE3548C1680320FFF75EFF3248016846
:100B40000020FFF759FF304841680120FFF754FFAC
:100B50002D4881680220FFF74FFF2C48808981B221
:100B60000320FFF705FF2948008881B20020FFF726
:100B7000FFFE2648808881B20120FFF7F9FE234856
:100B8000008981B20220FFF7F3FE2148808981B2FB
:100B90000320FFF7A5FE1E48008881B20020FFF762
:100BA0009FFE1B48808881B20120FFF799FE1848FC
:100BB000008981B20220FFF793FE10BD2DE9FE4FA0
:100BC000064689469246002002901EBB0123054A34
:100BD0001946FFF720FE37E0AC0121420000214218
:100BE000B88121425C0000205D0000205E000020F2
:100BF0005F0000206800002095D626E80B2E2140DB
:100C00000080214260000020740000209C00002031
:100C100088000020012E06D10123FE4A194600203B
:100C2000FFF7F9FD10E0022E06D10123FA4A19461A
:100C30000020FFF7F0FD07E0032E05D10123F74A5E
:100C400019460020FFF7E7FDB9F1020F04D1F4487F
:100C50004078F34948701CE0B9F1040F06D1F04820
:100C6000407840F00100EE49487012E0B9F1080FF9
:100C700006D1EB48407840F00200E949487008E0AE
:100C8000B9F1100F05D1E648407840F00300E4497F
:100C900048700123E24A03211846FFF7BCFDE148F2
:100CA000007840F08000DF49087001230A460321E4
:100CB0000846FFF7B0FD00242CE05AF824B058464F
:100CC00002F0ABFD0746D84AD84B02F0B9FDCDE99A
:100CD000000102F075FD0546E8B28DF80B00280A08
:100CE0008DF80A00280C8DF80900280E8DF80800F0
:100CF00034B9012302AA04210846FFF78CFD07E05E
:100D000004F10901C8B2012302AA0421FFF783FDFF
:100D1000601CC4B2102CD0DBBDE8FE8F2DE9F84377
:100D200005460E469146002000902DB90123C04A89
:100D30001946FFF770FD19E0012D06D10123B54AD0
:100D400019460020FFF767FD10E0022D06D10123B0
:100D5000B14A19460020FFF75EFD07E0032D05D1DB
:100D60000123AE4A19460020FFF755FD022E04D19B
:100D7000AB484078AA49487019E0042E06D1A8482B
:100D8000407840F00100A649487010E0082E06D1D6
:100D9000A348407840F00200A149487007E0102EB7
:100DA00005D19F48407840F003009D4948700123D9
:100DB0009B4A03211846FFF72EFD9A48007840F021
:100DC00040009849087001230A4603210846FFF7AE
:100DD00022FD00242BE039F8148084B948F48058AF
:100DE00008F0FF008DF802004FEA28208DF801007E
:100DF00001236A4603210620FFF70DFD15E04FEAA7
:100E00008857F8B28DF80300380A8DF80200380CC4
:100E10008DF80100380E8DF8000004F10901C8B208
:100E200001236A460421FFF7F6FC601CC4B2102CB3
:100E3000D1DBBDE8F8832DE9F04305460E46914627
:100E400035B901237A4A19460020FFF7E4FC19E07E
:100E5000012D06D101236F4A19460020FFF7DBFC64
:100E600010E0022D06D101236B4A19460020FFF73E
:100E7000D2FC07E0032D05D10123684A1946002062
:100E8000FFF7C9FC022E04D16548407864494870D8
:100E900019E0042E06D16248407840F00100604914
:100EA000487010E0082E06D15D48407840F00200FE
:100EB0005B49487007E0102E05D15948407840F052
:100EC0000300574948700123554A03211846FFF78C
:100ED000A2FC5448007840F0C00052490870012339
:100EE0000A4603210846FFF796FC002420E039F863
:100EF000147054B94F494F703812087001230A46D4
:100F000002210520FFF787FC10E04FEA87484FEAEF
:100F10001840484948704FEA1860087004F1090108
:100F2000C8B20123434A0221FFF775FC601CC4B21A
:100F3000102CDCDBBDE8F0832DE9FE4F05460E46A4
:100F4000914600200290019000902DB90123384A6B
:100F50001946FFF760FC19E0012D06D101232D4A47
:100F600019460020FFF757FC10E0022D06D101239F
:100F7000294A19460020FFF74EFC07E0032D05D152
:100F80000123264A19460020FFF745FC2548007832
:100F900040F08000234908700846407840F0400047
:100FA000487001230A4603210846FFF734FC304607
:100FB00002F033FC07461C4A1C4B02F041FC8246FF
:100FC00002F0FEFB0446E0B28DF80B00200A8DF81B
:100FD0000A00200C8DF80900200E8DF8080001236E
:100FE00002AA04210846FFF716FC484602F015FC49
:100FF00007460D4A0D4B02F023FC824602F0E0FB4F
:101000000446E0B28DF80B00200A8DF80A00200C8F
:1010100012E000005D0000205E0000205F00002064
:10102000600000206500002095D626E80B2E2140A8
:101030005C000020680000208DF80900200E8DF86B
:101040000800012302AA04210A20FFF7E4FBA9EB10
:10105000060002F0E2FB07465E4A5F4B02F0F0FB3F
:10106000824602F0ADFB0446E0B28DF80700200A8C
:101070008DF80600200C8DF80500200E8DF8040078
:10108000012301AA04210820FFF7C5FB012301AABF
:1010900004210920FFF7BFFB64208DF800008DF8C4
:1010A000010001236A4602210720FFF7B4FBBDE8D7
:1010B000FE8FF0B585B005460E4617460020049019
:1010C00003900290019000902DB90123434A1946E4
:1010D000FFF7A1FB19E0012D06D10123404A194673
:1010E0000020FFF798FB10E0022D06D101233D4AB6
:1010F00019460020FFF78FFB07E0032D05D10123E0
:10110000394A19460020FFF786FB3848007840F03E
:101110004000364908700846407840F0400048706A
:1011200001230A4603210846FFF775FBF0B28DF84C
:10113000120030128DF81100012304AA03210620A9
:10114000FFF769FBBC05E0B28DF80F00200A8DF8AF
:101150000E00200C8DF80D00200E8DF80C000123E0
:1011600003AA04210A20FFF756FB4FF08064E0B287
:101170008DF80B00200A8DF80A00200C8DF809006C
:10118000200E8DF80800012302AA04210820FFF791
:1011900042FB00BFE0B28DF80700200A8DF8060080
:1011A000200C8DF80500200E8DF80400012301AA03
:1011B00004210920FFF72FFB50208DF800008DF847
:1011C000010001236A4602210720FFF724FB05B036
:1011D000F0BD0000D679BEE07FFDD53F5C00002069
:1011E0005D0000205E0000205F0000206500002000
:1011F0007FB505460C460121022001F030F8ADF81C
:101200000850ADF804400020ADF80A00ADF8060023
:1012100001A91F4801F04EF9012211461C4801F0B6
:10122000C0FC1D208DF8000000208DF80100032077
:101230008DF8020001208DF80300684600F07DFC67
:101240000121134801F092FC7FBD08B5012110482F
:1012500001F055FFD8B10F48008820B10E48008832
:10126000401C0D4908800C48008819280BD100202B
:10127000034602460146009000F0A7F80020064908
:101280000880044908800121014801F049FF08BD98
:101290000004004010010020B000002008B501212A
:1012A000102000F0CFFF4FF40050ADF800000120F7
:1012B0008DF8020010208DF803006946014800F007
:1012C00005FD08BD0010014008B501210C2000F00B
:1012D000B9FF4FF40040ADF8000010208DF8030076
:1012E00003208DF8020069465A4800F0EFFC4FF4E5
:1012F0008070ADF800006946574800F0E7FC08BD73
:1013000010B50120554908605549C1F8A0010220D7
:10131000FEF7A1FF00205349086010BD10B5002062
:101320004E4908600520FEF796FF01E0601CC4B23C
:101330004C480068012801D1FA2CF7DB012047490D
:1013400008600220FEF787FF00204749C1F8BC0172
:1013500010BD10B50020414908600220FEF77BFF58
:1013600000203F49C1F8A0010220FEF774FF0120D0
:101370003A4908600220FEF76EFF01203849C1F8A3
:10138000A0010220FEF767FF10BD70B504460025DE
:1013900018E000203149086004F0010018B1012074
:1013A0003049086002E000202E4908600320FEF763
:1013B00052FF64100120294908600320FEF74BFF0B
:1013C000681CC5B2082DE4DB70BD2DE9F041044670
:1013D0000D4616461F46DDF81880FFF791FF4020A6
:1013E000FFF7D3FFFFF79AFFFFF7B3FFFFF788FF81
:1013F000C020FFF7CAFFFFF791FF1C4911F8240036
:10140000FFF7C3FFFFF78AFF184911F8251041EADB
:10141000C811C8B2FFF7B9FFFFF780FF134911F8F1
:101420002600FFF7B2FFFFF779FF104911F82700F8
:10143000FFF7ABFFFFF772FFFFF78BFFFFF760FFD0
:101440008920FFF7A2FFFFF769FFFFF782FFBDE8E2
:10145000F0810000000C014000080140BC812142E5
:1014600000002142A001214200802142B40000205E
:1014700008B501210D2000F0E5FE0121FE4800F035
:10148000F6FC4FF40070ADF8000010208DF803005A
:1014900003208DF802006946F84800F017FC4FF46D
:1014A0008070ADF8000010208DF8030003208DF847
:1014B00002006946F14800F009FC8020ADF8000008
:1014C00010208DF8030003208DF802006946EB48D8
:1014D00000F0FCFB10208DF8030003208DF80200C3
:1014E0004020ADF800006946E44800F0EFFB202002
:1014F000ADF8000028208DF8030003208DF80200CD
:101500006946DE4800F0E2FB1020ADF8000028201C
:101510008DF8030003208DF802006946D74800F0DB
:10152000D5FB0820ADF8000028208DF8030003202B
:101530008DF802006946D14800F0C8FB28208DF8DC
:10154000030003208DF802004FF40040ADF80000C6
:101550006946CB4800F0BAFB08BD70B54FF4007186
:10156000C64800F060FC4FF48071C44800F05BFC9A
:101570008021C24800F057FC4021C04800F053FCD5
:101580002021BE4800F035FC05461021BB4800F084
:1015900030FC05430821B94800F02BFC05434FF40B
:1015A0000041B74800F025FC054315B94FF0FF3066
:1015B00070BD0520FEF733FE2021B04800F019FC75
:1015C00005461021AD4800F014FC05430821AB4846
:1015D00000F00FFC05434FF40041A94800F009FC5E
:1015E000054315B94FF0FF30E2E74FF40071A3480F
:1015F00000F01BFC4FF48071A04800F016FC802125
:101600009E4800F012FC40219C4800F00CFC202178
:101610009A4800F0EEFB9B4908701021974800F0B3
:10162000E8FB994908700821944800F0E2FB9749CB
:1016300008704FF40041924800F0DBFB94490870B9
:1016400090480078012809D18F48007830B98F4838
:10165000007818B90846007800B92A24894800782B
:1016600050B989480078012806D18848007818B90F
:101670008748007800B900248248007850B9824831
:10168000007838B98148007820B98148007801286D
:1016900000D144247B48007850B97B48007838B9A1
:1016A0007A480078012803D17948007800B92324CA
:1016B00000BF2021714800F09CFB054610216F48B7
:1016C00000F097FB054308216C4800F092FB0543AE
:1016D0004FF400416A4800F08CFB0543002DE8DC24
:1016E0004FF40071654800F09EFB4FF48071634831
:1016F00000F09BFB8021614800F097FB40215F4890
:1017000000F093FB20215D4800F073FB5D490870F9
:1017100010215A4800F06DFB5B49087008215748BA
:1017200000F067FB594908704FF40041544800F03D
:1017300060FB5749087053480078012809D1524886
:10174000007830B95148007818B90846007800B9D7
:1017500001244C48007850B94B480078012806D144
:101760004A48007818B94A48007800B90224454828
:10177000007850B94448007838B9444800780128C6
:1017800003D14348007800B903243E48007850B99B
:101790003D48007838B93D48007820B93C48007889
:1017A000012800D1412400BF2021344800F021FB52
:1017B00005461021314800F01CFB054308212F4845
:1017C00000F017FB05434FF400412D4800F011FBDA
:1017D0000543002DE8DC4FF40071284800F025FB9C
:1017E0004FF48071254800F01EFB8021234800F053
:1017F0001CFB4021214800F018FB20211F4800F06D
:10180000F8FA2049087010211C4800F0F2FA1E492D
:1018100008700821194800F0ECFA1C4908704FF4D0
:101820000041174800F0E5FA19490870154800789A
:10183000012809D11448007830B91448007818B943
:101840000846007800B904240E48007850B90E48C4
:101850000078012806D10D48007818B90C480078A6
:1018600000B9052407480078C8B907480078B0B91E
:101870000648007801280DE000023000000C01400D
:10188000000801400C0100200D0100200E01002085
:101890000F01002003D15448007800B906245348B2
:1018A000007850B95248007838B95248007820B9C9
:1018B0004D480078012800D1422400BF20214E4825
:1018C00000F097FA054610214B4800F092FA0543C4
:1018D0000821494800F08DFA05434FF4004147487C
:1018E00000F087FA0543002DE8DC4FF40071424810
:1018F00000F09BFA4FF480713F4800F096FA802187
:101900003D4800F090FA40213B4800F08EFA20213B
:10191000394800F06EFA354908701021364800F059
:1019200068FA334908700821334800F062FA3149F7
:1019300008704FF40041314800F05BFA2A49087002
:101940002A480078012809D12948007830B9294867
:10195000007818B90846007800B9072423480078B1
:1019600050B923480078012806D12248007818B9D8
:101970001D48007800B908241C48007850B91C485C
:10198000007838B91B480078012803D11648007840
:1019900000B909241548007850B91548007838B9BD
:1019A0001448007820B910480078012800D1432459
:1019B00000BF2021104800F01CFA054610210E48F7
:1019C00000F017FA054308210B4800F012FA05430E
:1019D0004FF40041094800F00CFA0543002DE8DC03
:1019E0002046E5E5704700000F0100200C010020B3
:1019F0000D0100200E010020000C014000080140F4
:101A000010B586B00446012144F2040000F01AFC2F
:101A10004FF40070ADF8140003208DF81600182064
:101A20008DF8170005A93A4800F050F94FF480608E
:101A3000ADF8140004208DF8170005A9344800F013
:101A400045F925208DF8000003208DF801008DF860
:101A5000020001208DF80300684600F06EF8019442
:101A60000020ADF80800ADF80A00ADF80C00ADF8A4
:101A700010000C20ADF80E0001A9264801F097FBDC
:101A8000012240F22551234801F029FC012121487F
:101A900001F019FC06B010BD10B540F225511D48EB
:101AA00001F002FD002831D01B48006808B9012070
:101AB00000E0002018490860164801F075FC17493D
:101AC000087008460078EF2805D11548008810B93D
:101AD00001201449087013480078B8B110480088F4
:101AE000A0B90E4800781049104A127888540F485F
:101AF0000078401C0D49087008460078052805D17B
:101B000001200749088000200849087010BD000026
:101B10000008014000380140B401224213010020B6
:101B20001001002012010020880400201401002070
:101B300031490143314A1160704770B500210023DB
:101B40000F22C47804B32D4C246804F4E064C4F577
:101B5000E064210AC1F10403CA40447804FA03F1A5
:101B60008478144021430901254C0678A155047856
:101B700004F01F050124AC4005786D11AD0005F19E
:101B8000E025C5F8004109E0047804F01F050124B0
:101B9000AC401C4D0678761145F8264070BD1A4AB7
:101BA0000A400243154B1B1F1A60704739B1134A94
:101BB000121D12680243114B1B1D1A6006E00F4AEA
:101BC000121D126882430D4B1B1D1A6070470428BA
:101BD00008D14FF0E021096941F004014FF0E02203
:101BE000116107E04FF0E021096921F004014FF095
:101BF000E0221161704700000000FA050CED00E0E2
:101C000000E400E080E100E080FFFF1F10B5044623
:101C1000CC48844208D10121042000F02DFB002192
:101C2000042000F029FB46E0C748844208D1012186
:101C3000082000F021FB0021082000F01DFB3AE005
:101C4000C248844208D10121102000F015FB002178
:101C5000102000F011FB2EE0BD48844208D1012184
:101C6000202000F009FB0021202000F005FB22E0ED
:101C7000B848844208D10121402000F0FDFA00213B
:101C8000402000F0F9FA16E0B348844208D101215F
:101C9000802000F0F1FA0021802000F0EDFA0AE047
:101CA000AE48844207D10121801500F0E5FA0021F9
:101CB000A01500F0E1FA10BD10B50121084600F0B2
:101CC000DBFA0021012000F0D7FA10BD2DE9F04128
:101CD000024600250026002000230024002791F85A
:101CE00003C00CF00F0591F803C00CF0100CBCF110
:101CF000000F03D091F802C04CEA050591F800C02E
:101D0000BCF1000F31D0146800202BE04FF0010C23
:101D10000CFA00F3B1F800C00CEA03069E4220D191
:101D200083004FF00F0C0CFA03F7BC4305FA03FCD9
:101D30004CEA040491F803C0BCF1280F06D14FF01F
:101D4000010C0CFA00FCC2F814C00AE091F803C0C0
:101D5000BCF1480F05D14FF0010C0CFA00FCC2F8A1
:101D600010C0401C0828D1D31460B1F800C0BCF1E9
:101D7000FF0F34DD546800202EE000F1080C4FF016
:101D8000010808FA0CF3B1F800C00CEA03069E4201
:101D900021D183004FF00F0C0CFA03F7BC4305FA76
:101DA00003FC4CEA040491F803C0BCF1280F05D1F0
:101DB00000F1080C08FA0CF8C2F8148091F803C07E
:101DC000BCF1480F07D100F1080C4FF0010808FAE8
:101DD0000CF8C2F81080401C0828CED35460BDE82F
:101DE000F0814FF6FF710180022181700421C170E2
:101DF00070470246002093680B400BB1012000E0C1
:101E0000002070470146886880B270470246002073
:101E1000D3680B400BB1012000E000207047014661
:101E2000C86880B2704701617047416170470AB16C
:101E3000016100E041617047C16070474FF480323A
:101E40000A438261816182618269826970470246C8
:101E50000020434B18684FF68073184040EA021088
:101E600008433F4B186070473E49C8617047F0B562
:101E70000A46002300240021002500F00046B6F1A8
:101E8000004F02D1364EF16901E0354E7168C0F362
:101E9000034583B200F44016B6F5401F08D121F087
:101EA00070612F4E766826F070662D4F7E6012E0CE
:101EB00000F48016B6F5801F06D1032606FA05F455
:101EC000A14341F0706106E0460D360103FA06F6C3
:101ED000B14341F0706122B1460D360103FA06F6B6
:101EE000314300F00046B6F1004F02D11C4EF161C3
:101EF00001E01B4E7160F0BD30B500228B071C0F56
:101F00000F2303FA04F2164B08338C1053F82430D5
:101F10009343134C08348D1044F8253023468C101D
:101F200053F824308C07240F00FA04F423430C4C9C
:101F300008348D1044F8253030BD0A49DC31086082
:101F40007047000000080140000C014000100140F3
:101F50000014014000180140001C01400020014015
:101F60000000014000002042DF48006840F001000E
:101F7000DD49086008464068DC490840DA494860A5
:101F800008460068DA490840D749086008460068F2
:101F900020F4802008600846406820F4FE00486075
:101FA0004FF41F0088607047CF49096821F48031E1
:101FB000CD4A11601146096821F480211160B0F505
:101FC000803F03D0B0F5802F0ED106E0C6490968E6
:101FD00041F48031C44A116007E0C349096841F403
:101FE000A021C14A116000E000BF00BF704710B5DA
:101FF00001460022002300204A11012A02D1BA4CD6
:10200000236806E0022A02D1B74C236A01E0B64CED
:10201000636A01F01F02012494401C400CB10120AE
:1020200000E0002010BD38B50020009000240025FD
:1020300000BF3120FFF7DBFF05460098401C0090F1
:102040000098B0F5A06F01D0002DF2D03120FFF73D
:10205000CEFF08B1012400E00024204638BD01462F
:102060000020A14A106820F0F80040EAC10010608A
:102070007047A04908607047024600209A4B586894
:1020800020F47C1042EA01031843974B58607047D4
:1020900098490866704701460020934A506820F02E
:1020A00003000843506070478F48406800F00C0000
:1020B0007047014600208C4A506820F0F000084329
:1020C0005060704701460020874A506820F4E06065
:1020D00008435060704701460020834A506820F44E
:1020E000605040EAC1005060704729B17E4A527A80
:1020F00002437D4B5A7204E07B4A527A82437A4B08
:102100005A7270477B49D8310860704701460020F9
:10211000754A506820F440400843506070470021E1
:10212000714A20321170704A82F82010012802D0C2
:1021300004280AD104E001216B4A2032117005E025
:102140000521694A2032117000E000BF00BF7047CE
:102150006949086070476449096A0143624A11622B
:102160007047654944390860704730B50021002246
:10217000002400235C4D6D6805F00C0121B1042999
:1021800005D0082923D105E05C4D056022E05B4DB8
:1021900005601FE0544D6D6805F47012524D6D6876
:1021A00005F48034022505EB92421CB9544D554389
:1021B00005600BE04C4D6D6805F400351DB1504DC8
:1021C0005543056002E04D4D5543056002E04B4D1F
:1021D000056000BF00BF444D6D6805F0F0010909BE
:1021E000484D6B5C0568DD4045603F4D6D6805F40A
:1021F000E061090A434D6B5C4568DD4085603A4DFE
:102200006D6805F46051C90A3E4D6B5C4568DD4060
:10221000C560354D6D6805F44041890B3A4D6B5CE6
:10222000C568B5FBF3F5056130BD29B12E4A526989
:1022300002432D4B5A6104E02B4A526982432A4BD8
:102240005A61704729B1284A92690243264B9A6124
:1022500004E0254A92698243234B9A61704729B171
:10226000214AD2690243204BDA6104E01E4AD26956
:1022700082431D4BDA61704729B11B4AD268024381
:10228000194BDA6004E0184AD2688243164BDA60D0
:10229000704729B1144A12690243134B1A6104E0D2
:1022A000114A12698243104B1A6170471249403932
:1022B000086070470F49C86470470B49C871704780
:1022C0000948406A40F080700749486270470146FB
:1022D0000020054A92680A400AB1012000E000206F
:1022E0007047014988727047001002400000FFF8F3
:1022F000FFFFF6FE000042428004424200127A00D4
:1023000000093D00150100202501002010B50446FC
:10231000FE48844208D10121C014FFF7ADFF00211F
:10232000E014FFF7A9FFC4E0B4F1804F08D1012108
:102330000846FFF7AEFF00210120FFF7AAFFB8E033
:10234000F348844208D101210220FFF7A2FF0021B7
:102350000220FFF79EFFACE0EE48844208D1012145
:102360000420FFF796FF00210420FFF792FFA0E072
:10237000E948844208D101210820FFF78AFF0021A3
:102380000820FFF786FF94E0E448844208D1012149
:102390001020FFF77EFF00211020FFF77AFF88E072
:1023A000DF48844208D101212020FFF772FF00217D
:1023B0002020FFF76EFF7CE0DA48844208D101213B
:1023C0004014FFF759FF00216014FFF755FF70E03C
:1023D000D548844209D10121C804FFF74DFF0021EF
:1023E0004FF40020FFF748FF63E0D048844209D152
:1023F00001210805FFF740FF00214FF48010FFF78F
:102400003BFF56E0CA48844209D101214805FFF745
:1024100033FF00214FF40010FFF72EFF49E0C548BD
:10242000844208D101214020FFF733FF00214020E2
:10243000FFF72FFF3DE0C048844208D101218020F2
:10244000FFF727FF00218020FFF723FF31E0BB4883
:10245000844208D101218015FFF71BFF0021A01540
:10246000FFF717FF25E0B648844209D1012108048F
:10247000FFF702FF00214FF48030FFF7FDFE18E068
:10248000B048844209D101214804FFF7F5FE00213C
:102490004FF40030FFF7F0FE0BE0AB48844208D168
:1024A00001218804FFF7E8FE00214FF48020FFF7A8
:1024B000E3FE10BD00220288944B98420ED0994B47
:1024C00098420BD0B0F1804F08D0914B984205D084
:1024D000904B984202D0904B984204D14FF68F73A4
:1024E0001A404B881A438D4B984207D08C4B984228
:1024F00004D04FF6FF431A40CB881A4302808B88E2
:1025000083850B880385814B98420BD0854B98427D
:1025100008D08B4B984205D08A4B984202D08A4B08
:10252000984201D10B7A038601238382704770B5EC
:10253000002400220023058C4FF6FE7635400584EA
:10254000028C8388048B4FF68F752C40B51E2C406F
:102550000D882C43751E2A400D892A434D882A4335
:102560006A4DA8420BD06F4DA84208D0744DA842C6
:1025700005D0744DA84202D0734DA84213D14FF636
:10258000F7752A404D892A434FF6FB752A408D88FE
:102590002A434FF6FF652B404FF6FF552B408D89A0
:1025A0002B43CD892B4383800483CD888586028489
:1025B00070BD70B5002400220023058C4FF6EF7625
:1025C00035400584028C8388048B48F6FF752C40C7
:1025D0004FF6FF452C400D884FF6FF7606EA05259D
:1025E0002C434FF6DF752A400D8906EA05152A436C
:1025F0004D8806EA05152A43444DA84202D0494DAC
:10260000A8421DD14FF67F752A404D894FF6FF76BF
:1026100006EA05152A434FF6BF752A408D8806EA5B
:1026200005152A434FF6FF352B404FF2FF752B401F
:102630008D8906EA85052B43CD8906EA85052B435E
:1026400083800483CD880587028470BD70B5002423
:1026500000220023058C4FF6FF6635400584028C6E
:102660008388848B4FF68F752C404FF6FC752C4079
:102670000D882C434FF6FF552A400D894FF6FF7603
:1026800006EA05252A434D8806EA05252A431F4DFB
:10269000A84202D0234DA8421DD14FF2FF752A4017
:1026A0004D894FF6FF7606EA05252A434FF6FF359A
:1026B0002A408D8806EA05252A434EF6FF752B40F1
:1026C0004DF6FF752B408D8906EA05152B43CD8904
:1026D00006EA05152B4383808483CD888587028491
:1026E00070BD70B5002200230024058C4EF6FF76E5
:1026F00035400584038C8488828B48F6FF752A4018
:102700004FF6FF452A400D8820E00000002C0140D4
:102710000004004000080040000C00400010004091
:102720000014004000340140004C014000500140C2
:102730000054014000180040001C004000200040F0
:102740000040014000440140004801404FF6FF7640
:1027500006EA05252A434DF6FF752B400D8906EA4A
:1027600005352B434D8806EA05352B43FA4DA84223
:1027700002D0FA4DA84208D14BF6FF752C408D8946
:102780004FF6FF7606EA85152C4384808283CD8838
:10279000A0F84050038470BD828B4FF2FF331A4083
:1027A0008283828B4FF6FF7303EA01231A438283ED
:1027B0007047F0B50C461546002200210026078C14
:1027C0004EF6FF7C07EA0C070784828B018C4FF6DC
:1027D000FF7707EA043640F6FF473A404FF6FF77A7
:1027E00007EA05273A434FF6FF7707EA03373A43EC
:1027F000D94FB8420ED0D94FB8420BD0B0F1804F6C
:1028000008D0D74FB84205D0D64FB84202D0D64FE5
:10281000B84206D14DF6FF77394046F48057394328
:1028200005E047F6FF57394044F480573943828327
:102830000184F0BD828B4FF6F3731A408283828B42
:102840000A4382837047F0B50C46154600220021EA
:102850000026078C4FF6FF6C07EA0C070784828B73
:10286000018C4FF6FF7707EA04264FF60C773A40C3
:102870004FF6FF7707EA03172F433A43B64FB842A4
:102880000ED0B64FB8420BD0B0F1804F08D0B44F45
:10289000B84205D0B34FB84202D0B34FB84206D1C8
:1028A0004FF6FF57394046F48077394305E04FF241
:1028B000FF57394044F48077394382830184F0BD67
:1028C000028B4FF2FF331A400283028B4FF6FF73E5
:1028D00003EA01231A4302837047F0B50C461546FC
:1028E000002200210026078C4FF6EF7C07EA0C0738
:1028F0000784028B018C4FF6FF7707EA041640F637
:10290000FF473A404FF6FF7707EA03373A434FF65F
:10291000FF7707EA05273A438F4FB8420ED08F4F13
:10292000B8420BD0B0F1804F08D08D4FB84205D0DF
:102930008C4FB84202D08C4FB84206D14FF6DF77A9
:10294000394046F01007394305E04FF65F773940CC
:1029500044F01007394302830184F0BD028B4FF627
:10296000F3731A400283028B0A4302837047F0B567
:102970000C46154600220021068C4FF6FE773E409D
:102980000684028B018C4FF60C7632407E1C06EAE0
:1029900003162E433243704EB0420ED06F4EB042FB
:1029A0000BD0B0F1804F08D06D4EB04205D06D4EC7
:1029B000B04202D06C4EB04206D14FF6FD763140A7
:1029C00044F00106314305E04FF6F576314044F01E
:1029D0000106314302830184F0BD70B505460C4603
:1029E0005D4885420ED05D4885420BD0B5F1804FE1
:1029F00008D05B48854205D05A48854202D05A48E3
:102A0000854200D100E000BF208850B92389A28808
:102A100061882846FFF7ABFFE1882846FFF79EFF55
:102A200025E0208804280AD12389A28861882846C5
:102A3000FFF753FFE1882846FFF742FF17E02088A1
:102A400008280AD12389A28861882846FFF7FBFE5F
:102A5000E1882846FFF7EEFE09E02389A288618815
:102A60002846FFF7A6FEE1882846FFF795FE70BDD1
:102A70002DE9F04105460C4600260127608808B97B
:102A8000022600E00026A088012801D1022700E0EC
:102A900001272088A0B92389A28861882846FFF7EA
:102AA00066FFE1882846FFF759FF23893A463146F9
:102AB0002846FFF712FFE1882846FFF701FF13E0E1
:102AC0002389A28861882846FFF707FFE188284606
:102AD000FFF7F6FE23893A4631462846FFF747FFBF
:102AE000E1882846FFF73AFFBDE8F0810A884B8865
:102AF0001A438B881A43CB881A430B891A434B8994
:102B00001A438B891A43A0F8442070474FF6FF718F
:102B1000818000210180C1804180017270470021C5
:102B2000018041808180C180018141818181C18199
:102B30007047002101804180012181800021C180F6
:102B4000018170470021018041808180C180018125
:102B50004181818170470000002C01400034014018
:102B60000004004000080040000C004021B1028831
:102B700042F00102028004E002884FF6FE731A4020
:102B80000280704731B1B0F8442042F40042A0F80E
:102B9000442005E0B0F84420C2F30E02A0F844201F
:102BA00070471AB183890B43838102E083898B4389
:102BB000838170478182704741EA0203A0F8483060
:102BC00070471AB183890B43838102E083898B4369
:102BD0008381704701894FF6F87211400181704777
:102BE0000A46002101894FF68F7319401143018174
:102BF000704730B504460D4629462046FFF7F0FFE2
:102C0000208940F00700208130BD2DE9F0410446C5
:102C10000D4616461F46602D06D13B460122314621
:102C20002046FFF75AFE05E03B460122314620468A
:102C3000FFF79DFE29462046FFF7D2FF208940F08E
:102C400007002081BDE8F08130B50C4600210189E4
:102C5000C9B24FF6FF7505EA0325154325432943FD
:102C6000018130BD2DE9F04105460E4617469846D4
:102C7000002443463A4631462846FFF7E5FF2C89B3
:102C80004FF6F870044044F007044FF68F7004408C
:102C900044F070042C81BDE8F081F0B504460D4687
:102CA00016461F463B46324629462046FFF7CCFFD4
:102CB000208940F480402081F0BD018582827047E8
:102CC0000A46002101884FF68F7319401143018095
:102CD0007047F0B50C4615461E4600210022002321
:102CE0000189028B038C4FF6F877394021434FF668
:102CF000FC473A4040F201173A434FF6DD773B403C
:102D00004FF6FF7707EA06172F433B430181028303
:102D10000384F0BD0A460021018B4FF68F731940E2
:102D20001143018370470A460021018B48F6FF7367
:102D300019404FF6FF7303EA0223194301837047DA
:102D40000A460021818B4FF68F731940114381830E
:102D500070470A460021818B48F6FF7319404FF6F1
:102D6000FF7303EA022319438183704721B102886C
:102D700042F08002028004E002884FF67F731A401E
:102D80000280704721B1828842F00402828004E010
:102D900082884FF6FB731A408280704721B1828887
:102DA00042F00802828004E082884FF6F7731A40EE
:102DB0008280704721B1828842F00102828004E063
:102DC00082884FF6FE731A40828070470A460021BF
:102DD000018B4FF6F77319401143018370470A4680
:102DE0000021018B4FF2FF7319404FF6FF7303EA86
:102DF00002231943018370470A460021818B4FF655
:102E0000F77319401143818370470A460021818B73
:102E10004FF2FF7319404FF6FF7303EA0223194381
:102E2000818370470A460021018B4FF6FB731940DE
:102E30001143018370470A460021018B4FF6FF338F
:102E400019404FF6FF7303EA0223194301837047C9
:102E50000A460021818B4FF6FB7319401143818391
:102E600070470A460021818B4FF6FF3319404FF619
:102E7000FF7303EA02231943818370470A46002146
:102E8000018B4FF67F7319401143018370470A4647
:102E90000021018BC1F30E014FF6FF7303EA0223F9
:102EA0001943018370470A460021818B4FF67F73D7
:102EB00019401143818370470A460021818BC1F379
:102EC0000E014FF6FF7303EA022319438183704713
:102ED0000A460021018C4FF6FD731940114301840D
:102EE00070470A460021018C4FF6F77319401143D1
:102EF000018470470A460021018C4FF6DF731940A8
:102F00004FF6FF7303EA02131943018470470A4620
:102F10000021018C4FF67F7319404FF6FF7303EACF
:102F200002131943018470470A460021018C4FF6B1
:102F3000FF5319404FF6FF7303EA0223194301843C
:102F400070470A460021018C4FF2FF7319404FF67B
:102F5000FF7303EA02231943018470470A460021E4
:102F6000018C4DF6FF7319404FF6FF7303EA0233ED
:102F700019430184704730B5002301248C40A3B26B
:102F8000048C9C430484048C02FA01F5ADB22C43FA
:102F9000048430BD30B5002304248C40A3B2048CDB
:102FA0009C430484048C02FA01F5ADB22C430484E2
:102FB00030BD70B5034600200024184618300125A6
:102FC0008D40ACB21D8CA5431D8409B1082909D1DF
:102FD00000EB6100056825F0700505600568154384
:102FE00005600EE00D1FC5F34E052844056825F465
:102FF000E045056005684FF6FF7606EA0226354390
:10300000056070BD21B1028842F00202028004E036
:1030100002884FF6FD731A400280704721B1028882
:1030200042F00402028004E002884FF6FB731A406B
:103030000280704721B1828842F08002828004E0E1
:1030400082884FF67F731A408280704702884FF65D
:10305000F7731A40028002880A4302807047828810
:103060004FF68F731A40828082880A4382807047AD
:1030700002894FF6F8731A40028102890A430281DD
:10308000704702894FF67F731A40028102890A4312
:1030900002817047818470478185704781867047BF
:1030A0000187704781877047A0F8401070470288F9
:1030B0004FF6FF431A40028002880A43028070479D
:1030C0000146888E70470146088F70470146888FF9
:1030D00070470146B1F8400070470146888C704740
:1030E0000146088D704702460020138A0B400BB141
:1030F000012000E000207047CA430282704730B5CB
:103100000246002000230024158A05EA0103958960
:1031100005EA010413B10CB1012000E0002030BD2C
:10312000CA4302827047000010B50446FB4884423F
:1031300009D101218803FFF79FF800214FF4804057
:10314000FFF79AF832E0F648844209D10121480499
:10315000FFF79FF800214FF40030FFF79AF825E0C1
:10316000F048844209D101218804FFF792F8002138
:103170004FF48020FFF78DF818E0EB48844209D126
:103180000121C804FFF785F800214FF40020FFF764
:1031900080F80BE0E548844208D101210805FFF7DB
:1031A00078F800214FF48010FFF773F810BD2DE977
:1031B000F04786B005460E460024A24600BFA14651
:1031C0000027B08900B100BF2F462C8A4CF6FF7053
:1031D0000440F08804432C82AC894EF6F31004407E
:1031E000B08831890843718908430443AC81AC8AB3
:1031F0004FF6FF400440B0890443AC8201A8FEF7BB
:10320000B4FFC648874202D1DDF810A001E0DDF826
:103210000CA0A88900F4004040B10AEBCA0000EB02
:103220000A1031684900B0FBF1F807E00AEBCA0068
:1032300000EB0A1031688900B0FBF1F86420B8FB9C
:10324000F0F004012009642101FB1089A88900F431
:10325000004040B1322000EBC900B0FBF1F000F0BB
:103260000700044308E0322000EB09106421B0FBA2
:10327000F1F000F00F0004432C8106B0BDE8F087A8
:103280004FF41651016000218180C18001810C2121
:10329000418100218181704710B502460020108ACB
:1032A0004FF2FF0318400B884C8823438C8823433C
:1032B000CC8823431843108210BD00210180418037
:1032C0008180C180704721B1828942F4005282819D
:1032D00004E082894DF6FF731A4082817047F0B591
:1032E0000346002400260025002040F66A17B94254
:1032F00000D100BF1846C1F3421401F01F06012798
:1033000007FA06F5012C01D10C3004E0022C01D1A2
:10331000103000E014301AB107682F43076002E054
:103320000768AF430760F0BD1AB1838A0B438382FD
:1033300002E0838A8B4383827047028A4FF6F073E0
:103340001A400282028A0A430282704782894FF23F
:10335000FF731A40828182890A438281704721B1BA
:10336000828942F00202828104E082894FF6FD7375
:103370001A4082817047028A4FF6DF731A40028238
:10338000028A0A430282704721B1028A42F48042D3
:10339000028204E0028A4BF6FF731A4002827047F1
:1033A000C1F308028280704701468888C0F3080094
:1033B0007047818941F0010181817047028BD2B24F
:1033C0000283028B42EA012202837047028B02F4DD
:1033D0007F420283028B0A430283704721B1828AB3
:1033E00042F02002828204E0828A4FF6DF731A40A4
:1033F0008282704721B1828A42F01002828204E008
:10340000828A4FF6EF731A408282704721B1828A16
:1034100042F00802828204E0828A4FF6F7731A4073
:103420008282704721B1828942F40042828103E0A6
:103430008289C2F30E028281704721B1828A42F4EE
:103440000062828204E0828A4FF2FF731A40828215
:103450007047828A4FF6FB731A408282828A0A433F
:103460008282704721B1828A42F00202828204E0A5
:10347000828A4FF6FD731A4082827047024600200E
:10348000B1F5007F00D100BF13880B400BB10120C4
:1034900000E00020704701F40072B2F5007F00D117
:1034A00000BFCA430280704770B502460024002363
:1034B0000025002040F66A16B14200D100BFC1F3DA
:1034C000421501F01F03012606FA03F3012D02D174
:1034D0009689334006E0022D02D1168A334001E07E
:1034E000968A33400C12012606FA04F416883440FA
:1034F00013B10CB1012000E0002070BD10B5002216
:10350000002340F66A14A14200D100BF0A12012430
:103510009440A3B2DC43048010BD00000038014099
:103520000044004000480040004C00400050004073
:103530000948804709480047FEE7FEE7FEE7FEE747
:10354000FEE7FEE7FEE7FEE7FEE7FEE70448054983
:10355000054A064B704700004F360008ED00000892
:10356000B0050020B00B0020B0070020B0070020FD
:103570000CB50020019000906C48006840F4803049
:103580006A49086000BF6948006800F40030009094
:103590000198401C0190009818B90198B0F5A06FEF
:1035A000F1D16248006800F4003010B101200090B1
:1035B00001E0002000900098012843D15C48006899
:1035C00040F010005A4908600846006820F00300E7
:1035D00008600846006840F00200086053484068F0
:1035E000524948600846406848600846406840F4D0
:1035F000806048600846406820F47C1048600846B7
:10360000406840F4E81048600846006840F0807068
:10361000086000BF4548006800F000700028F9D03D
:103620004248406820F0030040494860084640682E
:1036300040F00200486000BF3C48406800F00C00C9
:103640000828F9D10CBD10B5FFF792FF10BD10B5D9
:103650003648006840F00100344908600846406878
:1036600034490840314948600846006832490840FA
:103670002E4908600846006820F48020086008464B
:10368000406820F4FE0048604FF41F008860FFF798
:10369000DAFF4FF000602949086010BD10B5002125
:1036A00000200022214B5B6803F00C0121B10429AA
:1036B00006D0082928D107E0214B224C236027E0BF
:1036C0001F4B204C236023E0184B5B6803F4701001
:1036D000164B5B6803F48032022303EB904022B95F
:1036E000194B4343174C23600DE0104B5B6803F408
:1036F000003323B1144B4343124C236003E0104BBF
:103700004343104C236003E00D4B0E4C236000BF7D
:1037100000BF064B5B68C3F303130C4CE15C094B21
:103720001B68CB40074C236010BD00000010024016
:10373000002002400000FFF8FFFFF6FE08ED00E069
:1037400000127A002C01002000093D003001002009
:1037500070477047704770477047754600F02CF807
:10376000AE4605006946534620F00700854618B06E
:1037700020B5FFF7EBFEBDE820404FF000064FF00C
:1037800000074FF000084FF0000B21F00701AC4696
:10379000ACE8C009ACE8C009ACE8C009ACE8C009B5
:1037A0008D46704710B50446AFF300802046BDE853
:1037B0001040FCF702BD0000004870475005002093
:1037C0004FEA1153A3F58063D3F11E03A8BFD3F1D1
:1037D000200C08DB4FF0004242EAC12252EA50526C
:1037E00032FA03F0704709420BD4102BC4BF0020FB
:1037F000704703F5787CBCF1FF3F05D04FF0FF30F8
:1038000070474FF00000704770B500F0C3F800BF7C
:103810004992248000207047F0E7B0FA80F310FA54
:1038200003F10AD0C3F11D0303F580634FEA415051
:103830004FEA035202EBD12170474FF0000070476E
:10384000DFF848C170B51CEA111E1EBF1CEA131533
:103850009EEA0C0F95EA0C0F00F06F8081EA0304DA
:1038600023EA4C134EEAD47E21EA4C1141F4801134
:1038700043F48013AE44A1FB024CA0FB0365AEF100
:103880007F7E361955EB0C05A1FB034C4CF1000370
:10389000A0FB021C16EB0C06654153F10003094224
:1038A00018BF46F0010613F4007F0BD14FEA033135
:1038B0004FEA0530340341EA155140EA16506FF0E3
:1038C00003020AE04FEAC3214FEAC520F40241EAAD
:1038D000555140EA56506FF0020202EB2E4201EBC6
:1038E000025585EACE710AD05FEA440C18BF24F075
:1038F000004450F1000041F1000120EAD47040F290
:10390000FE7C624500D270BDA84214BF4FF08044D7
:103910004FF04044002E08BF0024BEF1806FA8BFC6
:10392000A1F1C041BDE8704080F282804FF00000FC
:1039300001F1C04101F0004170479EEA0C0F0CEA12
:10394000131518BF95EA0C0F06D04FF0000081EA5E
:10395000030E0EF0004170BD00F01CF88900013E1E
:1039600000F007B800F009B84FEA430C5FEA5C5C6E
:1039700008D081EA030100F05BB84FEA410C5FEA2E
:103980005C5CF6D14FF00000014970470000FF0772
:103990000000F87F0EF1020E2EF0030E5EF8046BAD
:1039A000364205D4012A43EB030515F5001F12D852
:1039B000012841EB010C1CF5001F0CD80ED14FEA79
:1039C000D17C15F5001F0CEB4C0C0CF1020C08BF60
:1039D0004CEBD37C04E04FF0080C01E04FEAD37CC1
:1039E0000CEB4C0526FA05F606F00706B6F1040CBA
:1039F00006D20EEB860CBDE870404CF0010C60471F
:103A0000DFE80CF0090B02024FF000414FF000001C
:103A1000A1F5002170BD19461046012851EB0104A3
:103A200018BFD4F5001484BF002001F0004170BD20
:103A30000808A0F500114FEA310170475C3A000810
:103A4000000000204001000028010008043B00089D
:103A500040010020700A000084010008E1181219DA
:103A6000023F027F02BF02FF023F037F03BF03FF4B
:103A7000041E7F033F03FF141A7F1C10101902F469
:103A800001CF019F016F013F010F01DF12AF1A7FCC
:103A90000412DF1A0F101A6F1835CF01F4015345C5
:103AA000465610204080D002110323102733A8610E
:103AB0002B2D3132111AFF23A9043914CA0F0481A6
:103AC000323F3206325B324F3266326D327D320720
:103AD000327F326F3277327C3258325E32793271D5
:103AE000327632383254327302143E2D010203040E
:103AF0000440090607080902040608ACA24A041F8C
:043B0000291B00007D
:04000005080000ED02
:00000001FF
