:020000040800F2
:10000000509A0020C1010008491500088514000815
:1000100045150008B9080008D517000800000000C1
:100020000000000000000000000000007D15000836
:10003000BD0800080000000079150008B11500088F
:10004000DB010008DB010008DB010008DB01000820
:10005000DB010008DB010008DB010008DB01000810
:10006000DB010008DB010008DB010008DB01000800
:10007000DB010008DB010008DB010008DB010008F0
:10008000DB010008DB010008DB010008DB010008E0
:10009000DB010008DB010008DB010008DB010008D0
:1000A000DB010008DB010008DB010008DB010008C0
:1000B000DB010008DB010008DB010008DB010008B0
:1000C000DB010008DB010008DB010008DB010008A0
:1000D000DB010008DB010008DB010008DB01000890
:1000E000DB010008DB010008DB010008DB01000880
:1000F000DB010008DB010008DB010008DB01000870
:10010000DB010008DB010008DB010008DB0100085F
:10011000DB010008DB010008DB010008DB0100084F
:10012000DB010008DB010008DB010008DB0100083F
:10013000DB010008DB010008DB010008DB0100082F
:10014000DB010008DB010008DB010008DB0100081F
:10015000DB010008DB010008DB010008DB0100080F
:10016000DB010008DB010008DB010008DB010008FF
:10017000DB010008DB010008DB01000800000000D3
:10018000DB010008DB010008DB010008DB010008DF
:10019000DB010008DB010008DB010008DB010008CF
:1001A000DB010008DB010008DB010008DFF80CD0F0
:1001B00000F0D6FA00480047213A0008509A002083
:1001C0000648804706480047FEE7FEE7FEE7FEE7F1
:1001D000FEE7FEE7FEE7FEE7FEE7FEE7691600083A
:1001E000AD0100082DE9F05F0546002092469B46D0
:1001F00088460646814640241BE02846414647463D
:10020000224600F0ADF853465A46C01A914110D329
:1002100011461846224600F094F82D1A67EB0108A3
:100220004F4622460120002100F08BF817EB000911
:100230004E41201EA4F10104DFDC484631462A4627
:100240004346BDE8F09F40EA01039B0703D009E065
:1002500008C9121F08C0042AFAD203E011F8013BB2
:1002600000F8013B521EF9D27047D2B201E000F80B
:10027000012B491EFBD270470022F6E710B513464A
:100280000A4604461946FFF7F0FF204610BD421CFF
:1002900010F8011B0029FBD1801A704730B50446C5
:1002A0000020034600E05B1C934203D2E05CCD5C7F
:1002B000401BF8D030BD30B505460020034600E0B5
:1002C0005B1C934205D2EC5CC85C201A01D1002C67
:1002D000F6D130BD30B4044696230800214604D040
:1002E000B62330BC002200F054B820460021F8E7C5
:1002F00000F0004230F000400AD0C10D01F56071FD
:10030000C0F3160042EA0151C2084007114370478A
:1003100000200146704730B50B46014600202022E0
:10032000012409E021FA02F59D4205D303FA02F502
:10033000491B04FA02F52844151EA2F10102F1DC62
:1003400030BD202A04DB203A00FA02F10020704779
:100350009140C2F1200320FA03F319439040704703
:10036000202A04DB203A21FA02F00021704721FA0A
:1003700002F3D040C2F12002914008431946704771
:100380000029A8BF7047401C490008BF20F00100A9
:10039000704710B4B0FA80FC00FA0CF050EA010487
:1003A00004BF10BC704749B1CCF1200421FA04F419
:1003B00011FA0CF118BF012121430843A3EB0C01F2
:1003C000CB1D4FEA00614FEA102042BF002010BC55
:1003D000704700EBC35010440029A4BF10BC704705
:1003E000401C490008BF20F0010010BC70472DE9F7
:1003F000FE4F804681EA0300C00F0C46009021F0BA
:10040000004123F00045B8EB0200A94105D2404667
:10041000214690461C460B46024623F000401043FE
:1004200047D0270DC7F30A00C3F30A510290401AC0
:10043000019040286BDAC3F3130040F4801B00984E
:10044000924620B10023D2EB030A63EB0B0B019819
:100450005946C0F140025046FFF773FF06460D466D
:1004600050465946019A00F08DF910EB08006141A1
:10047000002487EA115284EAE7731A4340D0009AB5
:1004800062B3019A012A4FEA075215DC001B61EBA7
:1004900002014FF0004202EA0752CDE90042001C7F
:1004A00041F5801132462B4600F08DF903B0BDE8CE
:1004B000F08F40462146F9E7001B61EB0201001C6A
:1004C00041F5801300185B412018A2F5001747EB97
:1004D000030140EAD570B6196D4111E06D084FEA8D
:1004E000360645EAC0754FEA0752001B61EB020170
:1004F000001C41F5801149084FEA300000195141B4
:1005000032462B4603B0BDE8F04F00F04DB90098DD
:10051000012240000023D0EB020263EBE07300985D
:1005200021464FEAE074B8EB000061EB0401E9E713
:1005300083F000435BE781F0004158E72DE9FE4F6F
:1005400081EA030404F0004421F0004100944FF0DC
:10055000000B23F0004350EA01045ED052EA03048A
:100560005BD0C3F30A54C1F30A552C44A4F2F3340C
:100570000194A0FB0254C1F3130141F48011C3F3B1
:10058000130343F4801301FB024400FB034E840A6F
:10059000970A44EA815447EA8357A4FB0768029507
:1005A0008D0A05FB07854FEA932C04FB0C542705A5
:1005B000029D4FEA065847EA1637B5EB08056EEB81
:1005C000070C870E920E47EA811742EA8312A7FBB7
:1005D0000201B6EB0B0164EB00042B0D43EA0C3374
:1005E0005E1844EB1C50DA465146E7FB0201C5F3A6
:1005F00013044FEA0B3343EA14534FEA0432019CCD
:1006000043EA0603A4F10C040294009CCDE900B473
:1006100000F0D9F803B0BDE8F08F00200146F9E7FB
:100620002DE9F04D81EA030404F0004B21F0004570
:1006300014464FF0000A23F0004150EA050220D092
:1006400054EA01021DD0C5F30A570246C5F313034D
:10065000C1F31300C1F30A5640F4801543F480132C
:10066000A7EB0608101BD64608F2FD3873EB050011
:1006700002D308F1010801E092185B41B8F1000FC4
:1006800003DA00200146BDE8F08D00204FF4801110
:10069000064684460EE0171B73EB050705D3121BB5
:1006A00063EB050306434CEA010C49084FEA3000AE
:1006B00092185B4150EA0107EDD152EA030012D0D3
:1006C00082EA040083EA0501084305D0101BAB4110
:1006D00006D20122002306E000224FF0004302E090
:1006E0006FF0010253101AEB06004CEB085110EBAF
:1006F0000A0041EB0B01BDE8F04D00F055B8C1F325
:100700000A52C1F3130140F2FF3341F480119A42BF
:1007100002DA00200146704740F233439A42A2F2C7
:10072000334202DC5242FFF71BBEFFF70ABE000055
:1007300030B5041E71F1000404DB4FF00044404268
:1007400064EB0101141E73F1000405DB1C464FF03D
:100750000043524263EB0403994208BF904230BD0C
:10076000064C074D06E0E06840F0010394E80700FE
:1007700098471034AC42F6D3FFF71CFDA4A80C0830
:10078000C4A80C08202A06DBCB17203A41FA02F055
:1007900043EAE07306E041FA02F3D040C2F12002DE
:1007A000914008431946704710B5141E73F10004B8
:1007B00008DA401C41F1000192185B411A4301D153
:1007C00020F0010010BD2DE9F04D92469B4611B17D
:1007D000B1FA81F202E0B0FA80F220329046FFF7DF
:1007E000B0FD04460F4640EA0A0041EA0B015346B9
:1007F0005A46084313D0114653EA010019D0C8F1F4
:1008000040025046FFF7ACFD05460E46504659469D
:100810004246FFF796FD084305D0012004E020463C
:100820003946BDE8F08D0020054346EAE0762C43CA
:1008300037430A986305E40AA0EB08000022FD0A8A
:1008400044EA47540A3002D500200146E9E7010591
:1008500010196941DDE9084500196941BDE8F04D0D
:10086000A2E770B58C1810F8015B15F0070301D1F1
:1008700010F8013B2A1106D110F8012B03E010F803
:10088000016B01F8016B5B1EF9D12B0705D4002326
:10089000521E0DD401F8013BFAE710F8013BCB1AC8
:1008A000921C03E013F8015B01F8015B521EF9D5BD
:1008B000A142D8D3002070BDFEE7000070470000C1
:1008C000EFF3108072B600BFFEE70000002804BFFF
:1008D0000120704710B50446407920B900202071EE
:1008E000204600F005F801206071002010BD0000D6
:1008F00081B043F63001C4F202010068A1F5036241
:10090000904201D001B0704700200090086840F488
:1009100080500860086800F480500090009801B092
:1009200070470000B0B5044600F0F2F8054640F606
:100930000810C2F200000078611C18BF044400BF18
:1009400000F0E6F8401BA042FAD3B0BD2DE9F04F0D
:1009500083B000F13E4202F1FF724FEAB22242F24E
:1009600000470192C4F202070A224FF0010E00254F
:100970004FF0000A4FF00008B84208BF0922009269
:100980000AE000BF08F101080AF1040AB8F1100FEB
:1009900005F1020500F0A4800C680EFA08FB14EAC9
:1009A0000B09EFD04C6804F0030CACF1010EBEF162
:1009B000010F11D80322876802FA05F6CA68B74307
:1009C000AA403A4382604268C4F3001722EA0B024D
:1009D00007FA08F73A434260BCF1030F1CD0C26823
:1009E00003238E6803FA05F7BA4306FA05F73A437C
:1009F000BCF1020FC2600FD16FF0030202EA58028D
:100A000002440AF01C060F23176A03FA06F40B6966
:100A1000A743B3403B431362026803234F68AB40D4
:100A20009A4307F00303AB401A4317F4403F4FF0DB
:100A3000010E0260A6D0002243F644030292C4F2E3
:100A400002031A6843F6004442F480421A601A68AE
:100A5000C4F2010402F480420292029A28F00302D6
:100A60004FF6084B2244CFF6FF7B52F80B300AF0CA
:100A70000C070F26BE4023EA060C019B009E092BA3
:100A800038BF1E4606FA07F747EA0C0342F80B3058
:100A9000A2684B6842EA090743F60C4CDE0258BFD5
:100AA00022EA0907A760C4F2010CDCF800209E02CC
:100AB00042EA090758BF22EA0907CCF800706268C9
:100AC0009E0342EA090758BF22EA090767602268C5
:100AD000DB0342EA090358BF22EA0903236051E716
:100AE00003B0BDE8F08F000042F20000CEF2040037
:100AF00000686FF31F3070474FF08470704700003C
:100B000042F20000CEF204000068000C70470000C2
:100B100047F24820C2F200000068704740F6081013
:100B200047F24821C2F20000C2F2000100780A68D0
:100B3000104408607047000080B543F60040C4F2DE
:100B40000200016841F400710160016841F48061B4
:100B50000160016841F480710160032000F05CF8DD
:100B60000F2000F005F800F02BF8002080BD0000F9
:100B7000B0B540F60812C2F2000240F268411278A5
:100B8000C2F200014FF47A730968B3FBF2F2044633
:100B9000B1FBF2F1084600F033FB0F2C4FF00105DA
:100BA0000CD858B94FF0FF3021460022002500F044
:100BB00023F840F60C10C2F2000004602846B0BDD5
:100BC00082B0002043F640010190C4F202014A685D
:100BD00042F480424A604A6802F480420192019ADB
:100BE0000090086840F080500860086800F080506D
:100BF0000090009802B0704770B514460D46064646
:100C000000F0EAFD2946224600F0A0FC01463046ED
:100C100000F0EAFD70BD000080B500F0F7FD80BD7A
:100C200070B582B00020019043F64000C4F202008B
:100C30000168402641F0805101600068C4F20E2630
:100C400000F080500190019847F204050120C4F2A1
:100C500000053060FFF75CFF044600BF2868C00352
:100C600006D4FFF755FF001BB0F57A7FF6D90EE0EA
:100C700001207060FFF74CFF044600BF2868800326
:100C800008D4FFF745FF001BB0F57A7FF6D90320A3
:100C900002B070BD002002B070BD00002DE9F0412F
:100CA000002800F08B8043F60808C4F202080446CE
:100CB000D8F8F8030D4600F00F00884207D288F8F4
:100CC000F853D8F8F80300F00F00A84276D1206856
:100CD000810717D5410705D5D8F8001041F4E05138
:100CE000C8F80010010705D5D8F8001041F460419C
:100CF000C8F80010D8F80010A26821F0F0011143E4
:100D0000C8F80010C0073FD1D8F8F80300F00F0072
:100D1000A84207D988F8F853D8F8F80300F00F0074
:100D2000A8424BD12068410707D5D8F80010E268E7
:100D300021F4E0511143C8F80010000708D5D8F895
:100D40000000216920F4604040EAC100C8F80000BA
:100D500000F07EF8D8F8001048F29802C1F30311B1
:100D6000C0F60002515C40F2684220FA01F140F600
:100D70000C10C2F200000068C2F200021160FFF71E
:100D8000F7FE0020BDE8F0816068811E022907D2CD
:100D900058F8081C89015CBF0120BDE8F08110E013
:100DA000012807D158F8081C89035CBF0120BDE861
:100DB000F08106E058F8081C890702D40120BDE83C
:100DC000F081D8F8001021F003010843C8F80000B2
:100DD000FFF79EFE064641F2883700BFD8F80000B4
:100DE000616800F00C00B0EB810F8DD0FFF790FE32
:100DF000801BB842F2D90320BDE8F08140F2684080
:100E0000C2F200000068704780B5FFF7F7FF43F6B5
:100E10000801C4F20201096848F2A802C1F3822164
:100E2000C0F60002515CC84080BD000080B5FFF7ED
:100E3000E5FF43F60801C4F20201096848F2A8027E
:100E4000C1F34231C0F60002515CC84080BD0000D1
:100E500010B543F60404C4F20204606800F00C000C
:100E600008280AD0042819BF42F20040C0F2F4005A
:100E700047F64000C0F27D1010BD2068216823684D
:100E8000490247F64001C0F27D1100F03F02C3F372
:100E900088105CBF42F20041C0F2F401A1FB0001E6
:100EA0000023FFF79FF921680222C1F3014102EB01
:100EB0004101B0FBF1F010BD2DE9F04182B00028F6
:100EC00000F0A2800446007843F60006C007C4F292
:100ED000020643D0B06800F00C00042805D1306849
:100EE00080033BD56068C8BB8EE0B06800F00C00A2
:100EF000082802D170684002F1D46568B5F5A02FCA
:100F00000AD0B5F5803F0BD0306820F480303060D7
:100F1000306820F4802006E0306840F480203060A3
:100F2000306840F480303060FFF7F2FD002D054658
:100F300011D000BF3068800310D4FFF7E9FD401BDB
:100F40006428F7D922E100BFFFF7E2FD401B6428C7
:100F50004FF0030055D830688003F5D4207880071F
:100F60001AD5B06810F00C0F09D0B06800F00C0072
:100F7000082840F08A807068400200F1868030685E
:100F8000800702D5E06801283ED13068216920F051
:100F9000F80040EAC10030602078000738D420789B
:100FA00040074CD4A5695DB3B06800F00C00082878
:100FB00040F09E80012D27D07068E16900F4800226
:100FC0008A4221D1216A00F03F028A421CD147F6B1
:100FD000C071626A0140B1EB821F15D1A26A002381
:100FE000CFF6FF7303EBC23200F440316FF30F0210
:100FF000914209D1E16A00F07060B0EB016F03D15A
:10100000002002B0BDE8F081012002B0BDE8F0810F
:101010006069002840F20000C4F2472057D0012147
:10102000C0F8801EFFF774FD054600BF706F800793
:10103000B5D4FFF76DFD401B0228F7D9A6E0306C50
:1010400010F080580AD100200190306C40F08050A0
:101050003064306C00F080500190019847F2000736
:10106000C4F200073868C00524D4386840F48070A2
:101070003860FFF74DFD05463868C0051AD4FFF704
:1010800047FD401B0228F7D980E0E068002851D0D6
:101090000020C4F2472001210160FFF739FD054619
:1010A000306880073FF571AFFFF732FD401B022823
:1010B000F6D96BE0A568052D50D0012D52D0306FC8
:1010C00020F001003067306F20F004004DE0002177
:1010D000C0F8801EFFF71CFD054600BF706F80073B
:1010E0007FF55DAFFFF714FD401B0228F6D94DE0F8
:1010F0000027C4F2472700203866FFF709FD022DBC
:1011000005460BD13068800158D5FFF701FD401B23
:1011100002284FF00300F5D973E700BF3068800163
:101120007FF56EAFFFF7F4FC401B02284FF0030081
:10113000F4D966E70020C4F2472000210160FFF7E0
:10114000E7FC0546306880077FF526AFFFF7E0FC37
:10115000401B02284FF00300F4D952E7306F40F0F3
:1011600004003067306F40F001003067FFF7D0FCBB
:10117000002D054641F2883714D000BF306F80073C
:1011800013D4FFF7C5FC401BB842F7D9032002B0C7
:10119000BDE8F081FFF7BCFC401BB8424FF00300F4
:1011A0003FF62FAF306F8007F4D4B8F1000F7FF413
:1011B000F9AE306C20F080503064F3E604F11C0589
:1011C0002FCD08430021CFF6FF7140EA821001EBDA
:1011D000C3316FF30F0140EA0560084370600120DE
:1011E0003866FFF795FC0446306880013FF508AF8C
:1011F000FFF78EFC001B02284FF00300F4D900E734
:1012000080B500F0BDF980BD002804BF0120704703
:1012100010B5044690F83D0028B9002084F83C0041
:10122000204600F021F8242084F83D002068C168A1
:1012300021F40051C160204600F020FA20680169C5
:1012400021F490410161416921F02A014161C168A5
:1012500041F40051C16000202021206484F83D1039
:1012600084F83E1010BD000080B586B041F2000148
:101270000068C4F20101002288420592CDE90322F0
:101280000292019201D006B080BD43F63000009278
:10129000C4F20200436943F010034361436903F061
:1012A00010030093009B0092036843F00103036066
:1012B000006800F00100009000984FF4C0600190B9
:1012C0000220CDE90202032004900720059001F5D9
:1012D000704001A9FFF73AFB06B080BD2DE9F0434D
:1012E00081B0054690F83E0020280BD10E4600291B
:1012F0004FF0010059D01746002A56D095F83C000F
:10130000012803D1022001B0BDE8F083012085F857
:101310003C004FF0000922201C46C5F8409085F89B
:101320003E00C5F83090FFF7F3FBAF85EF85A96865
:101330000746B1F5805F07D1286900281CBF3046F9
:101340004E46B046064601E04FF0000885F83C9056
:101350000AE000BF2868002640686FF35F2028F885
:10136000020BE88D0138E885E88DD0B128462021B0
:101370003A46234600F0F0F9D0B9002EEAD0A8682A
:10138000B0F5805F08D008B9286928B1286840689E
:1013900000F07F0002E000BF2868406806F8010BFB
:1013A000DFE7202085F83E00002001B0BDE8F08393
:1013B000032001B0BDE8F0832DE9F04381B004467D
:1013C00090F83D0020280BD10E4600294FF0010077
:1013D00055D01746002A52D094F83C00012803D17A
:1013E000022001B0BDE8F083012084F83C004FF0FA
:1013F000000921201D46C4F8409084F83D00FFF705
:1014000087FBA784E784A1680746B1F5805F07D111
:10141000206900281CBF30464E46B046064601E013
:101420004FF0000884F83C9007E000BF16F8010B6D
:1014300021684860E08C0138E084E08C80B120466F
:1014400080213A462B4600F087F980B9002EEDD175
:1014500038F8020B21686FF35F2048600026E9E747
:10146000204640213A462B4600F076F918B1032079
:1014700001B0BDE8F083202084F83D00002001B0D9
:10148000BDE8F083FEE7000080B547F2C40043F2F8
:101490000001C2F20000C4F202010160FFF716FA77
:1014A000002818BFFFF70CFA80BD000083B00020B1
:1014B00043F630010290C4F202010A6842F00402CD
:1014C0000A600A6802F004020292029A01900A6815
:1014D00042F080020A600A6802F080020192019ADA
:1014E0000090086840F001000860086800F0010002
:1014F0000090009803B0704780B547F2CC0041F2ED
:101500000001C2F20000C4F2010100234FF00C0CF4
:101510004FF4E13280E80E00C0E90333C0E905C3AF
:10152000C361FFF771FE002818BFFFF7C9F980BD3E
:1015300080B5FFF7E1FF01F005FA80BD80B501F04D
:1015400033FA80BDFEE70000FEE7000000F0070070
:1015500080F00703042B28BF04234FF0FF3C03381F
:101560000CFA03F338BF0020994381400CFA00F0D5
:1015700022EA0000084370477047000070470000EF
:10158000B0B501380024B4EB106F1CBF0120B0BD12
:101590004EF21005CEF2000568604FF0FF300F21CB
:1015A00000F022F90720AC6028602046B0BD0000A2
:1015B00080B5FFF7B3FA80BD10B592B006AC2046F7
:1015C0003021FEF759FE002043F640010590CDE999
:1015D0000300CDE901000090C4F202010A6842F064
:1015E00080520A60096801F08051009100990090D2
:1015F00047F20000C4F20000016841F4404101607C
:1016000000684FF4800100F44040009000980120F1
:1016100006904FF480300D910F21079002200E911B
:10162000D8210C90CDE90F10042011902046FFF72F
:1016300043FCB0B9FFF7F4FA98B90F2001900220EB
:101640000290002003904FF4A05004904FF480507B
:10165000059001A80521FFF721FB002804BF12B067
:1016600010BDFFF72DF900004EF68850CEF20000B5
:10167000016841F4700101607047000010B5044634
:101680000068D4E902C22369016921F44051114381
:101690000161626943EA0C01E3691143C2681943BD
:1016A00049F20C639A431143C1604169A26921F474
:1016B000407141F20043114340F48062C4F20103DF
:1016C0009A42416102D1FFF7B1FB01E0FFF79CFBB9
:1016D000E16963681922B1F5004FA0FB02011CD13A
:1016E0005A00DB0FFEF77EFD48F21F51C5F2EB11E9
:1016F000A0FB01235A096FF0630302FB03003223AE
:1017000003EBC000A0FB01014FF4F87000EA1110D8
:1017100000EB0210C1F342111AE09A009B0FFEF792
:1017200061FD48F21F51C5F2EB11A0FB01235A09DC
:101730006FF0630302FB0300322303EB0010A0FBF6
:101740000101F02000EA511000EB0210C1F3431137
:1017500022680843906010BD2DE9F04104460068FE
:1017600000680840884202D10020BDE8F0811D4693
:101770000E4690465F1C04E0206800683040B0428E
:10178000F2D0002FF8D02DB1FFF7C2F9A0EB08007E
:10179000A842F1D9206850E8030F216820F4D070E6
:1017A00041E80302002AF5D1206850E8050F2168BE
:1017B00020F0010041E80502002AF5D1202084F83C
:1017C0003D0084F83E00002084F83C000320BDE882
:1017D000F0810000FEE700004EF60C50CEF2000053
:1017E0000068C0F3022070474EF6145300F00F0259
:1017F000CEF2000309011A4400F16043B0F1FF3F4B
:10180000C8BF03F564421170704700004EF60C51DA
:10181000CEF200010A684FF6FF031A4060F30A2275
:1018200042F0806040F0FD700860704770B58EB087
:1018300004463DA00D4603F0DDFC2846214600226B
:1018400001F038F9010606D03FA100F01DF94FF074
:10185000FF300EB070BD41A006F0D8FB264656F80A
:10186000040B314601F0B4F9E8B368463021FEF7C5
:1018700003FD4021C4F200012068009106910DA9EA
:101880000CAA01F08DF9E8B90D98411C01D00A901D
:1018900018E00C9840F6E011C2F20001B0F5C04F1C
:1018A0000A910FD94AF2DD30C0F60C00294603F048
:1018B000A1FC206801F03EF9002020606FF00400D8
:1018C0000EB070BD2068694601F0CAF90146206873
:1018D000D9B1314601F07CF928B1304600F05AFF09
:1018E00000200EB070BD206801F048F94AF2D541E1
:1018F000C0F60C0100F0C8F8206801F01BF90020C8
:1019000020606FF001000EB070BD01F037F91AA130
:1019100000F0BAF8206801F00DF9002020606FF0A7
:1019200003000EB070BD00BF4372656174696E67DD
:1019300020746865206E6574776F726B2022257342
:10194000222E2E0D0A00000061695F6D6E657477AE
:101950006F726B5F6372656174650000496E6974D4
:1019600069616C697A696E6720746865206E657458
:10197000776F726B0D00000061695F6D6E65747743
:101980006F726B5F696E69740000000070B5C0B162
:1019900004460078B8B147F23C10C2F2000001687A
:1019A00079B145682846FEF772FC06462046FEF7E8
:1019B0006EFC864205D1284621463246FEF77BFC66
:1019C00068B1002070BD47F23C12C2F200021068FC
:1019D000002818BF1046002918BF002070BD47F22C
:1019E0003C10C2F2000070BD2DE9F04700F0D4FDBC
:1019F00047F23C14C2F200044FF0000914A0C4F8EE
:101A0000009006F003FB4FF0FF3A0FF26408002647
:101A100004E000BF013604F17C04AFB10020314680
:101A2000002701F09BF80028F4D0054640462946DF
:101A300003F0E0FB20462946FFF7F8FE8246002827
:101A400018BF4D462F46E5E75046BDE8F08700BF7A
:101A5000446973636F766572696E67207468652088
:101A60006E6574776F726B2873292E2E2E0D000011
:101A70000D0A466F756E64206E6574776F726B2009
:101A8000222573220D0A000080B5030AC2B219B1E3
:101A900004A003F0AFFB80BD0EA011461A4603F070
:101AA000A9FB80BD453A204149206572726F7220C2
:101AB00028257329202D20747970653D30782530D4
:101AC000327820636F64653D3078253032780D0AB6
:101AD00000000000453A204149206572726F722073
:101AE0002D20747970653D30782530327820636F11
:101AF00064653D3078253032780D0A0010B5806F6E
:101B000000F1180E9EE80250446A88184CEB03015D
:101B100010EB0E00614110BDB0B58EB0846F05466C
:101B20002078A0B1286890B1C4E903120DA901AAD8
:101B300001F05CF841F6DD30C0F6000044F8280FF3
:101B400006210D98A1602146656005F019FC0EB0D4
:101B5000B0BD0000896847F2B812C2F2000200234B
:101B600001F0010C1375890782F800C042BF012102
:101B700011701175C2E90133C2E90633C2E90833B5
:101B80008267704780B5936F1B78002B08BF80BDBC
:101B900000238B6081ED060A126F4FF0150C4A612D
:101BA00001220A610222A1F806C0CB6000F020FCED
:101BB00000F062FC80BD000010B58EB0846F21780B
:101BC00049B100680DA901AA01F010F80D9804F1BF
:101BD000280105F0FFFB0EB010BD00002DE9F04F0D
:101BE00081B02DED048B8EB0D0F878B014460D4640
:101BF00001F092F90CABAA07C3E9000100F1A08043
:101C0000680740F1B38001F0C1F90CA8D0E90001E8
:101C1000DBE908329FED5A9AC0185141DBF80820E1
:101C2000CBE90801501CCBF80800A8054FF400319F
:101C30009BF8140058BF4FF48031002818BF01F101
:101C400000416288E0686FF3DF3203881144059435
:101C50000491022B26BF406800F10C0400244FF0D1
:101C6000000935E04FF0000AC96806920A91C06881
:101C70000121ADF81C10C268D0E90110ADF81E209A
:101C8000ADF82000002009910B90002C18BF20888F
:101C9000013881450598049DB0F804800CA8DBE963
:101CA0000367D0E9000138BF45F4802501F0E8FB67
:101CB0003046394602222B46F0EE480A06AFCDF8F0
:101CC0000080CDF808A0019700F0BCFA09F10109E5
:101CD000002C14BF2088002081453FD26068002876
:101CE00014BF50F829000020C0B30368B0EE498A41
:101CF00053B15968B0EE498A31B15A88B0EE498A79
:101D000012B1096891ED008A81690A6817020BD443
:101D1000002BA7D05F68002FA4D05B88002BA1D038
:101D20007B6893F800A09FE7002B9BD05F68002F93
:101D300098D05B88002B95D07B6893F900A093E73F
:101D4000DBF80400E90500F10100CBF804000DD533
:101D50000CA8D0E90001CBE9080107E001F0DCF8AC
:101D6000DBE9062380185941CBE9060101F00EF9A1
:101D700000200EB0BDEC048B01B0BDE8F08F00BFB9
:101D800000000000002804BF00207047C168C2881E
:101D9000514302898088514348437047C0F3C610BD
:101DA0000430C008704700002DE9F04F83B0D2F82E
:101DB00000900446D9F81010D9F804A00868002251
:101DC0004028C9F80C2016D0D9F800201368984292
:101DD00011D10B69D768BB420BD18B68D788BB4246
:101DE00007D1CB681789BB4203D1496892889142D9
:101DF00006D0052100E002214FF0000AC9F80C10BE
:101E0000FFF7CCFFD9F800100546D1F810B0E8462E
:101E10000DE0584641462A46FEF715FAAB44AAF1B2
:101E2000010AD9F808000130C9F80800E6B1A7682E
:101E300087B1204641462A4602F008FF06460028A0
:101E4000F4D0BAF1010FECDBBBF1000FE1D14FF0A0
:101E5000000BE4E7D9F80C0030B9D9E9010181425F
:101E60001CBF0120C9F80C00B7FA87F0400903B085
:101E7000BDE8F08F2DE9F04117687D68A5B10446F3
:101E8000386888B10668D0F81080204602F024FD3A
:101E900068B13046FFF782FF00FB05F2204641465D
:101EA00002F090FC18B1BD600120BDE8F081002077
:101EB000BDE8F081B0B582B00C46816805460C30B3
:101EC000FFF764FD38B1031D28462146002200F0CB
:101ED00017FA02B0B0BD4FF0040C28462146042288
:101EE0000423CDF800C000F09FF902B0B0BD00009F
:101EF0002DE9F04F81B02DED028B90B08B468146DD
:101F00000C304FF0FF31FFF741FD002800F08880D2
:101F100049468246FFF71EFEBAF8340070B300202F
:101F20000DF128084FF0010E00270BE046F63C416A
:101F3000C2F200010E91BAF8341001378F4200F15D
:101F400018001BD2DAF8384008EB00032518D5E951
:101F50000121D5E9036C24586D6948F80040C3E9B4
:101F60000121C3E9036C5D61DAF83810ADF82CE0AB
:101F700001440C69002CD9D00E94DCE7BAF8360085
:101F800070B300200DF110084FF0010E00270BE098
:101F900047F27401C2F200010891BAF83610013715
:101FA0008F4200F118001BD2DAF83C6008EB000504
:101FB0003418D4E90132D4E9031C3658646948F86E
:101FC0000060C5E90132C5E9031C6C61DAF83C1018
:101FD000ADF814E001440C69002CD9D00894DCE77A
:101FE0000AAF3846FFF7CEFE03460024484659465E
:101FF0000122009400F018F9BAF83400844218D293
:10200000013484424FF00102484659463B4608BF1E
:10201000022200F0CBF8002807F11807ECD15DE0B0
:1020200004274846594604220423009700F0FCF890
:1020300054E0504649465A46FFF76EFD00F0A6FFB1
:10204000DAF800000AA904AA00F074FE012836D1CB
:1020500000F062FF024650460B46FFF74FFD0D466B
:10206000039001F00DFA484659465246FFF78AFDA3
:10207000BAF83640FCB19FED208A002604AF4FF03D
:10208000000800BF0398294608F1010801F0F8F99B
:102090000222484659460023F0EE480ACDE900677F
:1020A000A04508BF0322029600F0CCF8BAF83640EB
:1020B0001837A045E6D35046FFF77EFD0EE0DAF86C
:1020C000000000F05BFD08A1FFF7DEFC0A27484690
:1020D000594604220A23009700F0A6F810B0BDEC80
:1020E000028B01B0BDE8F08F61695F6D6E6574773A
:1020F0006F726B5F72756E000000000080B50A237E
:10210000CB8042F002031FFA83FE4FF4806343EA60
:10211000124240F2022C0A610022C1E902CE00F014
:1021200067F980BDB0B505460B200C46C880FEF7A8
:10213000DBFCA060FEF78CFEE060FEF75FFE206136
:1021400001F00CFC606128462146002200F050F9A5
:10215000B0BD0000F0B585B0044602F023FD68462E
:102160000021002702F002FD47F21C259DE80F0028
:10217000C2F2000585E80F006846002102F004FD68
:102180009DE84F0005F1100C8CE8CF00AF6254B110
:10219000606838B1A86A211D51F80C2F0130002A5F
:1021A000FAD1A8626C6205B0F0BD0000F0B591B044
:1021B00006460027184615460C460293CDE90477DB
:1021C000FFF7E0FD039041F6A950C0F600000F9024
:1021D00002A8109047F21C2048F2DD0107AAC2F2C3
:1021E0000000C0F60001069201F08EFF02F0A2FC92
:1021F000059B4BB1DFB2304621460422009700F028
:1022000013F8002011B0F0BD049B304621462A4649
:10221000009700F009F8681EC0B2012898BF00F0CE
:102220002BF9012011B0F0BD80B5DDF808C04FF0EA
:102230000C0EA1F806E08B6081F80CC000F0D8F815
:1022400080BD00002DE9F04F81B02DED048B86B0EC
:10225000DDE914B68046D6F814A000273046B0EE6B
:10226000608AB0EE409A1C4691460D460196CDE933
:102270000377FFF787FD029024F00040B4F1FF3FA1
:102280000597D8BF0297C5E9020B85ED049A30681F
:10229000294641F8140F0E2021F80E0CB088B5EE37
:1022A000408A4860F088F1EE10FA88603089C86092
:1022B000F068CF61086106D1BAF1000F03D0504633
:1022C00000F0AAF803E0169885ED0A8AE86241F664
:1022D0007560C0F6000001A9C5E90D014046294618
:1022E0004A4600F085F8B9F1020F14BF012000F052
:1022F000C3F806B0BDEC048B01B0BDE8F08F000060
:102300002DE9F04107461420C880186890460D4614
:10231000083140221E4600F015F9706805F14801A9
:10232000402200F00FF9B06805F18801402200F06A
:1023300009F9F06805F1C801402200F003F930699D
:1023400005F58471402200F0FDF8B06905F5A6712D
:10235000402200F0F7F8308EC5F8A001708EC5F865
:10236000A401F06EC5F8A801F06AC5F89C01306FB1
:10237000C5F8FC0106F1240000F008F9C5F8940145
:1023800006F1280000F002F9C5F8980106F11400E2
:1023900000F0FCF8C5F8480106F11C0000F0F6F862
:1023A000C5F88C0106F1200000F0F0F8C5F89001A6
:1023B00006F1540005F5DE7106F13C0401F0D4FA93
:1023C00005F5EE71204601F0CFFA43F6C93043F629
:1023D000DD31C0F60000C0F60001C5E96B06C5E9B5
:1023E0006D1638462946424600F002F8BDE8F081F5
:1023F00080B500680B46086047F21C200A71C2F2E3
:10240000000048F2C6411030C0F600011A4602F042
:1024100089F902F09DFB80BD00224A6100288A6193
:102420001CBF02785FEAC27200D170474268002A7E
:1024300008BF704750689FED0F0A20B1538813B151
:10244000036893ED000A138881ED050A9B0707D402
:1024500068B152885AB1406890F9000088617047AD
:1024600028B152881AB1406800788861704700200E
:10247000886170470000000010B582B00020CDE9EF
:10248000000047F21C2048F2B001C2F20000C0F682
:1024900000016A4601F038FE044602F04BFB20467C
:1024A00002B010BDB0B582B002F044FB47F21C246C
:1024B00046F6E015C2F2000448F26C41C2F2000593
:1024C000C0F6000120462A4601F01EFEA8B302F025
:1024D00031FBA06A98B1D4E909212879043200259A
:1024E000012998BF012100BF12F8043C834208D0A3
:1024F0000135A94202F10C02F6D10D460CE000258F
:102500000AE0D2E9003246F6E01046F63021C2F287
:102510000000C2F200019847A06A85420DD146F63C
:10252000E01046F630210425C2F20000C2F200019C
:10253000042204230095FFF777FE02F0FBFA002047
:1025400002B0B0BD70B516460C460546FDF79FFEBD
:10255000B04288BF701E002C08BF70BD002D18BF90
:1025600000280CD14420208144F64610C4F24E507D
:10257000606044F65560C4F24450206070BD421C57
:1025800020462946FDF75FFE70BD000000280EBF03
:102590000020006800BA704780B584B04FF0000C8E
:1025A0000720CDE9000C05A0012101220023CDF870
:1025B00008C002F01FFE04B080BD00BF0D0A4149F3
:1025C00020706C6174666F726D202841504920251F
:1025D000642E25642E2564202D2052554E54494DDD
:1025E000452025642E25642E2564290D0A0000004F
:1025F00070B582B0144623680A46014644A0C3F36E
:10260000434502F0F7FD012D2CD0032D31D0022DD2
:1026100031D120684AF2EE6201024AF2EC61C0F662
:102620000C02C0F60C0158BF1146C0F3C6123FA001
:1026300002F0E0FD606900281CBF01785FEAC1710B
:1026400038D12068C0F3C61100F07F03C0F3C0503A
:102650001844081AA3F1400200F140013AA002F028
:10266000C9FD0BE02068C0F3C6112DA002F0C2FD29
:1026700004E029A000E036A002F0BCFD2389E28836
:10268000E668216802FB03F07043C1F3C6114843BA
:102690000430C10830A0009602F0ACFD216921B1E0
:1026A00034A002F0A7FD02B070BD36A005F0AEFC6C
:1026B00002B070BD4668002EC3D075689FED120B46
:1026C0003DB1708828B128680068FDF711FE41EC23
:1026D000100B3088800706D45DB1708848B16868F7
:1026E00090F9001006E025B1708810B16868017893
:1026F00000E0002153EC102B0EA0009102F07AFDB7
:10270000BCE700BF00BF00BF0000000000000000E9
:1027100025735B25645D200020626F6F6C2C0000C8
:1027200020666C6F617425642C00000020257325E1
:10273000642C0000207363616C653D25662C207A53
:1027400065726F3D25642C005125642E25642C0094
:102750004E4F4E45000000002025642062797465CC
:10276000732C2073686170653D2825642C25642CCA
:1027700025642900202840307825303878290D0A32
:102780000000000020285553455220646F6D616998
:102790006E290D00F0B581B0C56C044645B12868BE
:1027A0004CF6DE21CAF2FA11884208BF6D6800E0DB
:1027B00000254AF2D360C0F60C0005F027FC216822
:1027C0004AF27F60C0F60C0002F014FD61683DA083
:1027D00002F010FDA16842A002F00CFDE16847A0E4
:1027E00002F008FD217D627DA37D4BA002F002FD79
:1027F000A169087828B14AF29A60C0F60C0002F08C
:10280000F9FC217F627FA37F4AF25E60C0F60C0074
:1028100002F0F0FCE16A4AF22260C0F60C0002F01D
:10282000E9FCE16E4AF24360C0F60C0002F0E2FC03
:10283000B4F85C00B4F85A104843D4E91812414384
:102840004AF2F850C0F60C0002F0D4FCB4F8440090
:10285000B4F84210A26C484300FB02F14AF2CE5099
:10286000C0F60C002A4602F0C5FC218E628E4AF2A8
:10287000B560C0F60C0002F0BDFC208E70B10027E0
:102880002EA50026606B3146C2192846FFF7B0FE20
:10289000208E0136864207F11807F3D3608E78B197
:1028A000002727A5002600BFA06B3146C219284685
:1028B000FFF79EFE608E0136864207F11807F3D3BC
:1028C00001B0F0BD206D6F64656C207369676E6147
:1028D00074757265202020203A2025730D0A0000AF
:1028E000206D6F64656C206461746574696D65202A
:1028F000202020203A2025730D0A000020636F6DF0
:1029000070696C65206461746574696D6520202050
:102910003A2025730D0A00002072756E74696D658A
:102920002076657273696F6E202020203A2025641E
:102930002E25642E25640D0A000000002020490089
:1029400020204F0080B509A005F060FB09A00DA173
:102950000522022302F04EFC12A005F057FB02F004
:10296000F5FA00F0FBFA002080BD00BF0D0A230D30
:1029700000000000232025732025642E25640D0A05
:102980000000000041492056616C69646174696F00
:102990006E20284F6273657276657220626173657E
:1029A00064290000230D000010B5FFF71DF850B199
:1029B00004461EA0214602F01DFC4FF4FA60FDF70C
:1029C000B1FF204610BD1FA005F020FB4AF23640A3
:1029D000C0F60C0005F01AFB4AF2A840C0F60C0045
:1029E00005F014FB4AF23640C0F60C0005F00EFB71
:1029F00014A005F00BFB4AF26340C0F60C0005F092
:102A000005FB11A005F002FB1BA00221022202F02F
:102A1000F1FB40F6CC00C2F20000FFF79BFB00BFC9
:102A2000FFF740FD0028FBD010BD00BF0D0A453A5E
:102A300020206169496E6974282920723D25640D42
:102A40000A0000000D0000002320616E6420612058
:102A500073746D3332636F6D2D6261736520696EBF
:102A6000746572666163652073686F756C6420625B
:102A70006520757365640D00232028692E652E205E
:102A8000507974686F6E2073746D3332636F6D208C
:102A90006D6F64756C65292E2050726F746F636F53
:102AA0006C2076657273696F6E203D2025642E253B
:102AB000640D0A002DE9F04381B007460020164658
:102AC000884600F0BFF8A8B148F2C0390546012099
:102AD000C0F60009C40711D0384600F00DF90028EF
:102AE0004FF00000F6D06CB1D9F8402076B14046E6
:102AF00031460EE04FF48050312116E04FF00009CE
:102B0000002CF1D14FF4805014210EE0D9F834108C
:102B100040469047C1B230B9C5F80090D8F80020BF
:102B20006A60C8F8005020F0FF00084301B0BDE81B
:102B3000F0830000B0B5044600F084F858B10546B3
:102B4000D0E90010896C88476968884203D028461C
:102B500000F0E6F800242046B0BD000010B50C4699
:102B600000F0CAF84AF2A631C0F60C01002818BFDE
:102B70000846002C08BF084610BD000080B500F0D4
:102B800061F840B1D0E90010496C884720F0FF019E
:102B9000C0B2084380BD4FF480511420084380BD6B
:102BA000B0B514460D4600F04DF80146002C4FF02C
:102BB000FF3018BF002D00D1B0BD002908BFB0BD47
:102BC0000868816D2960C06D20600020B0BD0000E4
:102BD00010B50C4600F036F828B1D0E90010CA6BE9
:102BE0002146904710BD002010BD0000B0B514462E
:102BF0000D4600F027F8002C4FF0FF3118BF002DD4
:102C000001D10846B0BD0028FBD041682960D0E959
:102C100002CED0E90435D0E90621C4E90235C4E981
:102C20000421C4E900CED0E908C2D0E90A35D0E9D0
:102C30000C10C4E90835C4E90A100021C4E906C231
:102C40000846B0BD014647F28C00C2F20000814246
:102C500008BF70470268114318BF0020704700008A
:102C60002DE9F0438DB00D46FFF7ECFF38B3044675
:102C7000006800F11407036AC4CFD0E901CED0E99F
:102C80000389CDE90773D0E90937D0E90B01CDE914
:102C90000937CDE90B01A88BCDE90526CDE90389DC
:102CA000CDF804C0CDF808E068B105F118078FCF62
:102CB000EE6A0DF11C0C8CE88F000C9605E00020EC
:102CC0000DB0BDE8F083A86A0B90A88840B195E8E4
:102CD0008F006E690DF1040C8CE88F00069603E0FE
:102CE0002068806B80470590D4E90010CA6C01A968
:102CF00090470DB0BDE8F08310B568B10446FDF70C
:102D0000C6FA152808D14AF2A630C0F60C002146B2
:102D10001522FDF7D0FA08B1002010BD012010BD2A
:102D200047F28C01C2F20001884204BF0020086013
:102D300070470000B0B514460D46FFF783FF30B171
:102D4000D0E9001022460B6D29469847B0BD0020FF
:102D5000B0BD000080B582B00422009240F6580257
:102D60004FF0000CC2F200020123CDF804C004F0C1
:102D7000C3F902B080BD000048F24C30C0F600003C
:102D80007047000080B504F02FFA80BD80B50022A6
:102D900004F0C5FA80BD000080B504F031FA80BDB2
:102DA00070B59EB00C46054604F07EF9002C4FF03D
:102DB000000618BF002802D130461EB070BD4AF28E
:102DC000A630C0F60C0001904AF2BC30C0F60C00F0
:102DD00002904AF27830C0F60C0003904AF291302B
:102DE000C0F60C00049004F007FB059004F00CFB07
:102DF00006904AF61900C0F60C00079007208DF8DF
:102E000020000020CDF82100099004F043F90A9039
:102E100004F068F90B9045F6E020C0F20D0001AE19
:102E20000C9006F130004421FDF726FA2846314681
:102E300004F09EF806460028BED001A92046742260
:102E4000FDF701FAB8E7000070B50D46044604F03E
:102E5000E5F968B1284600F039FE0646284600F03C
:102E6000EDFD06EA0005204604F036FA284070BD64
:102E7000002070BD80B504F052FA80BD05A103A208
:102E8000002808BF11460846704700BF46616C73B2
:102E9000650000005472756500000000D0F804C0A1
:102EA00000290CEB0203436018BF002A08D0481E1B
:102EB000ACF1010111F8013F013A00F8013FF9D1ED
:102EC0000120704710B582B043F63004C4F202040A
:102ED0002068C00402D408A005F098F800200190F2
:102EE000206840F480502060206800F480500190F9
:102EF000019802B010BD00BF573A20435243204909
:102F00005020636C6F636B206973204E4F542065B3
:102F10006E61626C65640D00F0B585B000F012FB67
:102F200046F63047C2F2000779680025441AFDF7DB
:102F3000EFFDB96801AA461A2046002100F0BCFA4C
:102F40003868864205D9B6FBF0F04FF0FF31E0FB60
:102F500001452046294605B0F0BD000080B584B08B
:102F60006A464FF0FF30002100F0A6FADDE90101CA
:102F70004FF47A7200FB021046F63041C2F20001B3
:102F8000086000F0EBFA04B080BD000010B5FDF75A
:102F9000BFFD46F63044C2F20004A06000F0F4FA2F
:102FA00000F0D0FA606010BD2DE9F04188B01769DB
:102FB0000646EFB13868D8B11446022907F1040576
:102FC0001CD104A9304601F0FFFDA8B30DF1100893
:102FD0003B68616840462A46984738B306980028FF
:102FE000F6D104A9304600F0A9FE08B0BDE8F08192
:102FF000304601F08BFE08B0BDE8F0810A20009059
:103000000DF106026B46304601F060FFA0B1009A58
:1030100004AE0DF10601304601F0CAFD3B6861685F
:1030200030462A46984708B0BDE8F081F06804A110
:10303000002818BF0146F160002008B0BDE8F0810B
:1030400063616C6C6261636B206661696C656400CE
:103050002DE9F04381B090461A69846816680546E8
:10306000894605E000F0E2F8002818BFB66888B18C
:1030700066B1A868844209D130683146076828469D
:103080004A464346002FEDD0B847EDE7012001B096
:10309000BDE8F083002001B0BDE8F08380B553683F
:1030A0009B7803F0C003802B05D0402B07D04BB991
:1030B00000F024F880BD00F017F8002080BDFFF775
:1030C00073FF80BDC16803A2002918BF0A46C26011
:1030D000002080BD696E76616C6964206669656CEC
:1030E0006420747970650000C1684AF26F52C0F6BE
:1030F0000C02002918BF0A46C26070472DE9F04350
:1031000085B0536815469A78044602F00F003DA733
:10311000C2F3011257F82070DFE802F002040D42FA
:103120002A6905E0D5E9042090421CBF0121017005
:103130002046194647E06E69022948D1042846D83E
:1031400001A9204601F040FD002856D04FF00109AA
:103150000DF1040804E000BF318801313180A0B1D5
:10316000039890B169683088B1F8092090420CD278
:103170002A69B1F8073003FB00224046B84700280F
:10318000EAD14FF000090028EAD1039860BB01A9F9
:10319000204600F0D3FD00EA090005B0BDE8F08349
:1031A00019886A69072811800AD12869B3F80710BD
:1031B000FDF762F868682969D0F80B0001F032FD6C
:1031C00069682A692046B84705B0BDE8F0833188B0
:1031D00028694D1CB3F807203580B3F80960B14267
:1031E00002D201FB0202A3E7E0684AF2A051C0F656
:1031F0000C01002818BF0146E160002005B0BDE8C1
:10320000F08300BF61400008DD3F0008593F00081F
:10321000C53D0008D13D0008613D00085D3E000845
:10322000DD3E000800000000DD3D00082DE9F04112
:1032300086B00D46096801278968098891420DD139
:10324000E8460646404629461C4600F0D1FB30467B
:10325000214642462F73FFF721FF0746384606B046
:10326000BDE8F08180B50A4652F8041B89688B7866
:1032700003F0C003802B02D100F02AFB80BD12684E
:1032800000F026FB80BD0000A0F215416B2900F282
:1032900075800FF20C0000EB810251A0DFE811F005
:1032A0006C006E006E006E006E006E006E006E00B0
:1032B0006E006E006E006E006E00720073006E0095
:1032C0006E006E006E006E006E006E006E006E008E
:1032D0006E006E006E006E0078006E007D006E0065
:1032E00082006E006E0087006E006E006E006E0041
:1032F0006E006E006E006E006E006E006E006E005E
:103300006E008C006E006E009D006E006E006E0000
:103310006E006E006E00910093006E006E006E00F5
:103320006E006E006E006E006E006E006E006E002D
:103330006E006E006E006E006E0095006E006E00F6
:103340006E006E006E006E006E006E006E006E000D
:103350006E006E006E0097006E0099006E006E00A9
:103360006E006E006E006E006E006E006E006E00ED
:103370006E006E006E009B003BA070474AF6060090
:10338000C0F60C0070474AF2CE70C0F60C007047D1
:103390004AF2DC70C0F60C0070474AF2EA70C0F6E0
:1033A0000C0070474AF60E00C0F60C0070474AF257
:1033B000C070C0F60C0070474AF2F870C0F60C00FE
:1033C000704714A070470FA070472AA0704723A031
:1033D00070471EA0704706A0704719A0704700BF35
:1033E00053544D33324633303378422F430000007C
:1033F00053544D3332483741332F3742332F3742FE
:103400003000000053544D333246375B362C375D65
:103410007878780053544D3332483734332F35336E
:103420002F3530787820616E642053544D33324804
:103430003734352F35352F34372F3537787800002E
:1034400053544D33324637347878780053544D33E3
:10345000324C355B352C365D3278780053544D3321
:10346000324C34527878780053544D33324C34789F
:103470003678780053544D33324C343578787800B0
:10348000B0B52DED028B0C46054601F05BFD00EE5C
:10349000100A28462146B8EE408AFCF71BFF9FED34
:1034A000050A01EE100A21EE000A80EE080ABDECC2
:1034B000028BB0BD00007A442DE9F04381B0D2B355
:1034C00014460F46054601F03DFD0646284639469E
:1034D000324600234FF00008FCF784FE4FF47A7167
:1034E000A5FB012307FB013181461046324600232C
:1034F000FCF778FE44F24021C0F20F01A5FB012346
:1035000007FB01310546104632460023FCF76AFEF0
:103510004FF618414BF6C053CFF6FF71CFF6F0735C
:1035200009FB015209FB0300C4E9006902FB010029
:10353000C4E9022001E04FF0FF38404601B0BDE889
:10354000F083000041F20400CEF2000000687047F2
:1035500041F20400CEF20000006870474EF6FC50C5
:10356000CEF20000016841F08071016041F200007C
:10357000CEF2000000214160016841F4003141F0C9
:10358000010101607047000041F20400CEF200002A
:10359000002101607047000041F20400CEF20000FB
:1035A00000210160704700002DE9F04F87B063B340
:1035B000804688780F4600F0C0011D4616468029D7
:1035C0000DD0B7F80910A94209D2D8F8100053A1BC
:1035D000002818BF0146C8F8101000249AE0DDF852
:1035E00040B000F00F00052811D23A884046022171
:1035F00001F06AF988B3B87800F00F00042834D0DD
:10360000032835D14FEA850965E0012482E0012DC8
:1036100098BF01250AE000BF404639463246D847E8
:1036200008B3B7F80700013D06441AD040463946B2
:1036300001F052F998B1B87800F0C0018029EBD1BF
:1036400000F00F0005380128E6D8326840463946B8
:10365000D8470028E5D100245CE000245AE000248B
:1036600058E0012456E0002454E04FEAC50932E056
:1036700000200690CDE90400CDE90200012402A853
:10368000394632464FF0010A012D88BF2C46D847F3
:10369000C8B101944FF00109344600BF4FF0000A51
:1036A000A94538BF4FF0010A019848450CD0B7F83A
:1036B00007003946044402A82246D847002809F1E9
:1036C0000109EBD101E000E00598BAF1000F814655
:1036D00001D000241EE040464A460023002401F0A9
:1036E00023F9B8B1D8F8000070B1012D98BF0125B9
:1036F000404639463246D847044658B1B7F8070025
:10370000013D0644F4D105E0404600214A4601F05F
:1037100045FB0446204607B0BDE8F08F6172726138
:1037200079206D61782073697A65206578636565B5
:10373000646564002DE9F04182B00D46B1F90510D1
:10374000AF781646804609B170180FE007F03000D8
:10375000102806D12846314600F076FA80F00100A4
:1037600000E001208DF807000DF10700A97807F0AF
:103770000F0201F0C003802B2BA306D1366834461C
:10378000002E18BF01248DF8074053F82270C1F3B2
:103790000111DFE801F0022C0E1DC6B34046294698
:1037A00001F09AF8D8B3404629463246B84750BB94
:1037B00035E0B5F805103246002908BF05F10900CB
:1037C0000388404629460097FFF7EEFED8B926E069
:1037D00000882988884216D14046294601F07CF8A5
:1037E000E8B1404629463246B847C0B10BE0007800
:1037F00048B14046294601F06FF880B1404629465D
:103800003246B84758B1012002B0BDE8F081D8F87F
:1038100010000FA1002818BF0146C8F810100020A2
:1038200002B0BDE8F08100BFD54600088946000817
:1038300039460008914500089D4500083D450008AF
:10384000B9450008FD45000800000000A945000832
:103850006D697373696E67207265717569726564ED
:10386000206669656C64000010B513681BB10432F2
:103870000446984708B1012010BD206903A1002823
:1038800018BF01460020216110BD00BF63616C6C50
:103890006261636B206572726F720000B0B5096877
:1038A000044606E0FFF7DEFC0028294618BFA96899
:1038B00048B10D4639B12868294642682046002A99
:1038C000F0D09047F0E7B5FA85F04009B0BD0000B0
:1038D00080B58B7803F0C003802B02D0402B03D03F
:1038E0002BB9FFF727FF80BDFFF7BEFF80BD016941
:1038F0004AF2AF52C0F60C02002918BF0A46026114
:10390000002080BD70B54568044600BF60688078BF
:1039100000F00F06082E05D0204601F065F860681B
:10392000A842F3D1A6F10800B0FA80F0400970BDBA
:1039300080B582B040F6C411C2F20001097801904E
:1039400049B947F2CC00C2F2000001A901224FF0B0
:10395000FF33FDF731FD019802B080BD47F238100A
:10396000C2F2000000687047002818BF002900D18B
:10397000704780B50368D0E9032ED0F814C00B60FF
:10398000C3880A61028980888B6048606046CA608B
:10399000C1F81CE0FEF740FDBDE880407047000024
:1039A00040F6C410C2F2000001210170704700000F
:1039B00080B5034647F2CC008AB2C2F20000194635
:1039C0004FF0FF33FDF78AFCB0FA80F0400980BD6C
:1039D00080B5034647F2CC008AB2C2F20000194615
:1039E0004FF0FF33FDF7E8FCB0FA80F0400980BDEE
:1039F000F0B581B00F460C4657F80C1B54F8042F55
:103A00008E680546314600F0C1FF2068B178286114
:103A100001F0C00080286F6108BF2C6101B0F0BDCB
:103A2000FDF78AF8FDF7C8FDFDF740FDFDF72CFD19
:103A3000FDF77EFDFDF782FDFCE7000010B582B0CA
:103A40000246002401A80121019403F03BFBD0B3FE
:103A500040F6BC01019AC2F2000140F22C538C6086
:103A6000CC6002F50061C2F20003C3E9021140F22A
:103A70004461C2F2000140F21863C1E9022202F57A
:103A80000071C2F20003C3E9021140F23073C2F2C6
:103A90000003C3E9022240F20473C2F20003C3E947
:103AA000021140F61C01C2F20001C1E9022240F2FB
:103AB000F071C2F20001C1E9024440F25851C2F271
:103AC0000001C1E9022202B010BD000080B582B041
:103AD00002460020019001A8012103F0FBFA002812
:103AE0006FD040F2845CC2F2000CDCF8001040F2AF
:103AF000884E41F08043C2F2000E0199CCF80030AC
:103B0000DEF8002040F27063C2F20003CCF8081027
:103B1000CCF80C1042F08042D3F800C0CEF8002060
:103B200001F50062CEF80820CEF80C204CF080425F
:103B30001A6001F5606201F5206CC3E9022C40F2C5
:103B40005C72C2F20002136840F2B05C43F0804342
:103B5000136001F53123C2E9023340F29C62C2F2E4
:103B600000021368C2F2000C43F08043136001F5B9
:103B7000202301F54121C2E9021140F64801C2F2B9
:103B800000010A6803F5873342F080420A6003F5BA
:103B90008232C1E9022240F28871C2F200010A6851
:103BA000DCF800E042F080424EF0804E0A6003F5FF
:103BB0008832CCF800E0CCF80830CCF80C30C1E901
:103BC000022202B080BD000080B5136823B15A6B99
:103BD0001B8E00F00DF880BD012080BD80B51368FC
:103BE00023B19A6B5B8E00F003F880BD012080BD8D
:103BF0002DE9F04389B0012B1DDB48F214191C4656
:103C000015460E4607460DF10408C0F6000900BF30
:103C10003846314600F060FE88B128464146FFF73D
:103C2000A3FE38464946424600F0E0FD38B1013C6B
:103C300005F11805ECD1012009B0BDE8F0830020A2
:103C400009B0BDE8F0830000B0B586B08C4681783D
:103C5000B0F90530C1F301121FFA83FE0024DFE83A
:103C600002F035020B11BEF1000F11D01CF8030059
:103C7000B0FA80F0440929E03CF80300B0FA80F083
:103C8000440923E03CF80300B0FA80F044091DE049
:103C900011F0C00F1DD0B0F80710002918BF012186
:103CA00012D09CF800207AB9012300BFB0F80710A9
:103CB0009AB28A424FF0000138BF012104D21CF8A9
:103CC00002200133002AF1D081F00104204606B021
:103CD000B0BD01F00F0105390429DCD8DFE801F09F
:103CE000041F0A032500D6E7BCF80000B0FA80F0F4
:103CF0004409EBE7D0F80B106846624600F046FE38
:103D0000C8B16D4601980499FFF79EFF044600284C
:103D1000DCD0284600F068FE0028F3D1D6E79CF8F6
:103D20000000B0FA80F04409D0E7B0F80700B0FA1C
:103D300080F04409CAE70124C8E7000070B58A682A
:103D40000C4605462AB120460021002600F07EFFE1
:103D500020B16068E16801266860E960304670BDA6
:103D600070B582B00E4601A91546044600F086FBE8
:103D7000E0B1019AB2F5803F0FD2B07800F0C000F8
:103D8000802805D1E0684AF26F51C0F60C0109E0C5
:103D9000B6F80700911C81420BD9E0684AF28151C4
:103DA000C0F60C01002818BF0146E160002002B0F7
:103DB00070BD25F8022B2046294600F047FF02B0CF
:103DC00070BD000080B5114600F0B8F980BD00005C
:103DD00080B5114600F0C0F980BD000070B582B01A
:103DE0000E4601A91546044600F048FB08B30198A9
:103DF000B0F5803F05D3E0684AF28151C0F60C016E
:103E000013E0B6F8072038B190420CD1204629467D
:103E100000F01CFF02B070BD28461146FCF72CFADA
:103E2000012002B070BDE06803A1002818BF014660
:103E3000E160002002B070BD696E636F72726563ED
:103E400074206669786564206C656E6774682062AA
:103E5000797465732073697A65000000F0B581B0EC
:103E60000F4669461546044600F008FBD0B1009E97
:103E7000701C02D3E06815A110E0B97801F0C00110
:103E8000802905D1E0684AF26F51C0F60C0105E0C7
:103E9000B7F80710884208D9E06808A1002818BFC1
:103EA0000146E160002001B0F0BD204629463246BF
:103EB00000F0CCFE0021A95501B0F0BD7374726909
:103EC0006E67206F766572666C6F770073697A65CE
:103ED00020746F6F206C617267650000F0B585B06B
:103EE0000F46D1F80B6001A91546044600F06CFEA0
:103EF00098B1D7F80B0050B1B87800F03000202806
:103F00000ED101A831462A4600F0F0F80DE0E06835
:103F10000AA1002818BF0146E160002005B0F0BDED
:103F200001A831462A4600F025F9054601A9204698
:103F3000FFF704FF284005B0F0BD00BF696E766151
:103F40006C6964206669656C64206465736372697A
:103F500070746F720000000070B582B00E46694642
:103F60001546044600F01AFA002834D0B6F80700C7
:103F7000013807280FD8DFE800F004090E140E0EF0
:103F80000E189DF900002870C11712E0BDF900005D
:103F90002880C1170DE0E0684AF24651C0F60C01D6
:103FA00015E00098C117286003E0DDE90001C5E9CC
:103FB0000001DDE9002350405940084302D10120AF
:103FC00002B070BDE0684AF22251C0F60C01002830
:103FD00018BF0146E160002002B070BD70B582B02C
:103FE0000E4669461546044600F00CFA002834D007
:103FF000B6F80700013807280FD8DFE800F00409F9
:104000000E140E0E0E18009A0021D0B22A7012E083
:10401000009A002190B22A800DE0E0684AF24651F1
:10402000C0F60C0115E000980021286003E0DDE9EE
:104030000001C5E90001DDE9002350405940084373
:1040400002D1012002B070BDE0684AF22251C0F6F0
:104050000C01002818BF0146E160002002B070BDCD
:1040600070B582B00E4669461546044600F0CAF99E
:10407000002837D0B6F80730DDE90001082BA3F19E
:1040800001034FEAE07218BF1146072B0DD8DFE895
:1040900003F004080C120C0C0C1543B22870DA174C
:1040A00010E003B22880DA170CE0E0684AF24651CB
:1040B000C0F60C0112E02860034603E003460A46FE
:1040C000C5E9000158405140084302D1012002B027
:1040D00070BDE0684AF22251C0F60C01002818BFFA
:1040E0000146E160002002B070BD000070B50D46D1
:1040F000064608461146144600F094FD304629460F
:10410000224600F037F870BDF0B585B00E4601A923
:104110001546044600F058FD68B101AF38463146F7
:104120002A46FFF7E3FF054620463946FFF706FE1D
:10413000284005B0F0BD002005B0F0BD10B582B03C
:104140000C4601A9042200F081FD00281CBF019942
:10415000216002B010BD000010B582B00C46694667
:10416000082200F073FD18B10099019AC4E9001209
:1041700002B010BD2DE9F04F8DB004460020CDE90E
:104180000A00ADF80E0004A800F000FCA0680028AA
:1041900000F0AC800DF1070B02AE0DF106070DF13A
:1041A00010084FF001094FF0000A0020009000BFF6
:1041B0002046594632463B4600F006F940B3029D80
:1041C0004046294600F0F6FB50B30599887800F088
:1041D0003000202803D1DDE90823934249D068B993
:1041E00006983F280AD800F01F0140090AAB53F88F
:1041F000202009FA01F1114343F820109DF807101F
:1042000020464246FEF74AFF80F001005AE000BF18
:104210009DF8060000284FF0030008BF012051E080
:10422000554545D34046FFF76DFB28B10598B0F8DA
:1042300000A0554504D23BE04FF0FF3A554537D337
:104240009DF80720B9465F46D4F808B020462946B5
:1042500043464646FEF7FCFE08B3A068BBEB0002EF
:10426000ABEB0000B0FA80F018BF0122410950000A
:1042700017E0009A8A420CD0009A32B1009BBDF838
:104280000E20B3F809309A4225D10022ADF80E2055
:1042900000910DF10E0109910028A1D0AEE7012097
:1042A0000021B046BB4602AE4F464FF0010949B16E
:1042B0009DF80710204600F029FD00284FF001006E
:1042C00018BF0220002818BF022812D1A0680028B9
:1042D0007FF46EAF0FE0E0684AF201510028C0F6AB
:1042E0000C0108BF0846E0600120EBE700200090C9
:1042F00001E003284ED1009830B10099BDF80E00BE
:10430000B1F80910884236D104AD00BFDDE90506D9
:104310008778284600F068FB0028F7D117F0300FA7
:1043200004D105980088002818BF0136402E28BF08
:104330004026E6B10020B0EB561F4FEA561008D0D9
:104340000AA902460B6801331BD1013A01F10401AD
:10435000F8D116F01F010AD00AAA52F82000C1F1C4
:1043600020014FF0FF3222FA01F1884209D10120E9
:104370000DB0BDE8F08FE0684AF20151C0F60C01C3
:1043800004E0E0684AF2EA41C0F60C01002818BFD8
:104390000146E16000200DB0BDE8F08F10B582B09D
:1043A0000C46694600F02EF860B1DDE900215FEAB5
:1043B00051014FEA320302F0010252425340514090
:1043C000C4E9003102B010BDF0B581B00027164637
:1043D0000C461F700F70176069461A461D4600F0A4
:1043E00053F858B1009830B1C10800F00700012718
:1043F0003160207002E0012028700027384601B0AB
:10440000F0BD00002DE9F04381B088460446002746
:104410000DF1030900250026402F21D220464946F0
:1044200000F054FC28B39DF80300C7F1200300F00E
:104430007F0121FA03F3B7F1200258BF01FA02F31A
:1044400001FA07F158BF00211E430D43000607F192
:104450000707E1D4C8E90056012001B0BDE8F083A8
:10446000E0684AF29051C0F60C01002818BF0146DE
:10447000E160002001B0BDE8F083000080B50022BB
:1044800000F002F880BD00002DE9F04182B08846BE
:104490000DF107011646054600F018FC48B39DF8DB
:1044A0000770380640D507F07F0707240DF107068F
:1044B00009E000BF00F07F00A04007439DF907100E
:1044C000073400291DD52846314600F0FFFB48B3CC
:1044D0009DF80700202CEDD34106EFD03F2C4FF084
:1044E000010138BFFF21B7F1FF3F12DC8142E5D067
:1044F0000FE04FF00000D6B1A968C1B901203070BB
:1045000018E0232C4FF001000DD1C9B211F0700159
:1045100009D0E8684AF29051C0F60C01002818BF93
:104520000146E960002028B10120C8F8007002B0FF
:10453000BDE8F081002002B0BDE8F08180B5BAB1DD
:104540008B783F2B0DD81388B1F8071002338B42BC
:1045500007D9016909A2002918BF0A460261002093
:1045600080BD32F8023B11461A4600F02BF980BD9F
:104570000021002200F026F980BD00BF6279746539
:10458000732073697A652065786365656465640086
:1045900080B5114600F0EAF880BD000080B51146F4
:1045A00000F0EEF880BD000080B51346B1F807209A
:1045B000194600F007F980BD80B594468A78B1F8B5
:1045C000071002F0C002802A08BF4FF0FF31BCF193
:1045D000000F4FF0000218BF002903D1614600F020
:1045E000F1F880BD002200BF1CF80230002BF5D08E
:1045F00001329142F8D10A46F0E7000080B5D1F8C7
:104600000B1011B100F0F2F880BD016903A200297E
:1046100018BF0A460261002080BD00BF696E766146
:104620006C6964206669656C642064657363726993
:1046300070746F720000000080B5B1F80710013986
:1046400007290BD8DFE801F004070A150A0A0A1A3D
:1046500092F900200EE0B2F900200BE001694AF265
:104660004652C0F60C02002918BF0A46026100201B
:1046700080BD1268D31700F01BF980BDD2E900237A
:1046800000F016F980BD000080B5B1F807100139BF
:10469000072909D8DFE801F00406081308080818FC
:1046A00012780DE012880BE001694AF24652C0F61A
:1046B0000C02002918BF0A460261002080BD126862
:1046C000002300F031F980BDD2E9002300F02CF97D
:1046D00080BD000080B5B1F80710013907290BD85B
:1046E000DFE801F004070A150A0A0A1A92F9002005
:1046F0000EE0B2F900200BE001694AF24652C0F622
:104700000C02002918BF0A460261002080BD126811
:10471000D31700F009F980BDD2E9002300F004F9B5
:1047200080BD0000B0B586B00446684600F02EF9A2
:10473000B0B16D460199887800F00F00082805D1C6
:1047400004992046FFF7AAF828B90CE0049A2046FD
:10475000FFF7BEF838B1284600F046F90028E9D145
:10476000012006B0B0BD002006B0B0BD80B582B05B
:1047700009680422019101A900F010FB02B080BD7C
:1047800080B582B0D1E900120B0A8DF800108DF8C7
:1047900001300B0C090E4FEA122C4FEA124E8DF825
:1047A0000230130E8DF803108DF80420694608229C
:1047B0008DF805C08DF806E08DF8073000F0EEFAB0
:1047C00002B080BDF0B581B0002314460D46064608
:1047D000002700F0A9F828B130462946224600F00B
:1047E000DDFA0746384601B0F0BD00002DE9F04182
:1047F00086B0044600200590CDE90300CDE9010014
:1048000001A815460E46FFF78DFFD0B1DDF81080E8
:10481000204642460023002700F086F8A0B1206819
:10482000B0B1D4E902214144914218D920694AF239
:10483000C251C0F60C01002818BF014621610027B3
:1048400002E0059800272061384606B0BDE8F081F7
:1048500020460021424600F0A1FA0746F4E701AAEB
:10486000616882E803010020CDE9040001A8314617
:104870002A46FFF757FF0746E168DDE90430029A50
:10488000194443456260E1602061DDD003A1002747
:10489000002818BF01462161D6E700BF7375626D1D
:1048A00073672073697A65206368616E6765640069
:1048B00080B5590041EAD271520082EAE37281EA7E
:1048C000E37300F031F880BD80B5530F41EAC202B6
:1048D00000F02AF880BD000080B58A7802F00F024F
:1048E000092A15D84FF0000CDFE802F00D0D0D0875
:1048F0000B05050512054FF0020C04E04FF0050C06
:1049000001E04FF0010C0A886146FFF7DDFF80BD32
:1049100001694AF2AF52C0F60C02002918BF0A46DC
:104920000261002080BD000080B584B0B2F180013A
:1049300073F1000105D28DF805200DF1050101226A
:104940001FE00DF10601A1F1020E4FF0000C00BFB7
:1049500042F080018EF80210D10941EA436242EA36
:10496000D311DB090CF1010C0EF1010E0029EFD17E
:104970009EF80110624601F07F018EF801100DF1E2
:10498000060100F00BFA04B080BD00000346C0E948
:10499000001100209860B1F80300B1F905C0DA6099
:1049A0000244088802EB0C011A61002818BF01209C
:1049B0005961704770B5466804460D4606E000BF71
:1049C000204600F011F86068B0420AD060680188A3
:1049D000A942F5D1807800F00F000828F0D001201E
:1049E00070BD002070BD000010B541680A8812B388
:1049F0000A4632F80F3F4260FBB18B78B1F807E00E
:104A000003F0300CBCF1300F09D14A7C02F03002C7
:104A1000302A04D14A8A4FF6FF74A24228D003F00C
:104A2000F002202A0FD1B1F8092002FB0EFEBCF1E2
:104A3000000F14D110E0002010BD0168C268FFF71C
:104A4000A5FF002010BD03F0C002802A08BF4FF070
:104A5000040EBCF1000F02D182680132826002694B
:104A60004B8A7244B1F914101A4411440261416135
:104A7000012010BD70B586B04268937803F00F0135
:104A8000082912D1006904686CB100266D4600BF88
:104A9000284621462673FEF7ABFF2846FFF7EAFFBC
:104AA000A468002CF4D106B070BD03F0C006802EBF
:104AB0000CD0002EF7D103F03003302B18BF202B81
:104AC00011D140690021018006B070BD026900214A
:104AD00043F0100303F030031160302B04BF406932
:104AE000018006B070BD102B05D1D0E90456AE424E
:104AF00015D000233370072907D1D2F80B200169A4
:104B0000104600F08FF806B070BDD2F80B100069A7
:104B1000B2F8072041B1FBF796FB06B070BD43F039
:104B20001003302BCDD0E6E71146FBF7A5FB06B00E
:104B300070BD000047F21010C2F20000FF210170AA
:104B400047F23410C2F200000021016070470000FB
:104B500010B547F2F814C2F20004207840F080004B
:104B6000207000F007FB0020207010BD44F6ED52CD
:104B7000C0F600024FF0FF334FF0000CC0E90021F7
:104B8000C0E9023C7047000045F21512C0F6000271
:104B90004FF0FF3C0023C0E90021C0E902C30361DC
:104BA0007047000080B5FEF7FBFE002080BD0000CE
:104BB00042F69D63C0F600034FF0000CC0E90031DF
:104BC000C0E9022C70470000B0B582B00D4601A9C3
:104BD0000446FFF753FC70B194E80F00AA60C5E9E2
:104BE00000010198EB60824208D2E06807A100282A
:104BF00018BF0146E160002002B0B0BDA860A16806
:104C0000081AA060012002B0B0BD00BF70617265DB
:104C10006E742073747265616D20746F6F20736899
:104C20006F72740010B586B00A4601466846FFF7F9
:104C3000ADFE48B16C4600BF2046FFF71BFF204683
:104C4000FFF7D2FE0028F7D106B010BD70B584B0D2
:104C50001546044699B1A068A84205D2E0684AF218
:104C60005851C0F60C012AE0236820462A4698478E
:104C700000B3A068401BA060012004B070BD206894
:104C800042F69D62C0F600029042E4D0112D0AD394
:104C90006E4600BF204631461022FFF7D7FF90B185
:104CA000103D102DF6D8694620462A46FFF7CEFF64
:104CB00004B070BDE0684AF26651C0F60C010028ED
:104CC00018BF0146E160002004B070BD10B5044675
:104CD000806848B1236820460122984750B1A068F7
:104CE0000138A060012010BDE0684AF25851C0F6BA
:104CF0000C0104E0E0684AF26651C0F60C0100289D
:104D000018BF01460020E16010BD000080B50529F4
:104D10000FD8DFE801F003060B0E0E1900F02CF897
:104D200080BD00210822FFF791FF80BD00F012F83E
:104D300080BDC1684AF23452C0F60C02002918BF87
:104D40000A46C260002080BD00210422FFF77EFFDA
:104D500080BD000010B582B001A90446FFF78EFBAC
:104D600030B1019A20460021FFF770FF02B010BD5C
:104D7000002002B010BD0000B0B582B004460DF1B5
:104D8000070500BF204629460122FFF75FFF18B143
:104D90009DF907100029F5D402B0B0BDB0B5036885
:104DA0000446154673B1D4E902202844904205D93F
:104DB00020694AF2C251C0F60C010AE020462A4698
:104DC000984720B1E0682844E0600120B0BD206928
:104DD00003A1002818BF014600202161B0BD00BF1B
:104DE000696F206572726F72000000002DE9F04F4C
:104DF00083B0002A52D047F21016C2F20006307873
:104E00009046FF280D4614BF012000F04FF80028FF
:104E100049D047F2341BC2F2000B4FF0AA0A0DF141
:104E20000B09019003E000BFB8F1000F3AD03078D1
:104E3000B8F1000F41461CBF0121002802D111BB6F
:104E4000F2E700BFDBF800C0A8F1010706EB0C0099
:104E5000431C0022985CB91AA854307802F101046E
:104E6000A0F10100307018BF0121974202D0020664
:104E70002246EFD10CEB04022544A8EB0408CBF842
:104E800000200029D0D00006CED1484601218DF85F
:104E90000BA0FEF79DFD00F009F8C5E7012003B067
:104EA000BDE8F08F019803B0BDE8F08F80B547F200
:104EB0001010C2F200002121FEF77AFD47F23411F2
:104EC000C2F2000100220A6080BD0000F0B581B08E
:104ED0001E4615460529044619D001291DD029BBB7
:104EE00037680020306000BF30680130B842306061
:104EF00025D8204629460122FFF7A8FEF8B115F96A
:104F0000010BB0F1FF3FEFDD012001B0F0BD042047
:104F1000306020462946042204E008203060204604
:104F200029460822FFF792FE01B0F0BDE0684AF280
:104F30003451C0F60C01002818BF0146E160002082
:104F400001B0F0BD80B5FBF759FF80BD2DE9F04100
:104F500086B043F60040C4F20200D0F800804AF266
:104F6000F0604FF68161C0F60C00C0F25D0100F008
:104F700041F944A003F04AF8FBF7B6FD0546FBF7FC
:104F8000B3FD80B2FEF780F90646FBF7B9FD034694
:104F90004AF28F70C0F60C002946324600F02AF91A
:104FA00040A048A24AA3042100F024F947F2381790
:104FB000C2F200074FF480303860FBF79DFD0146D8
:104FC00046A000F017F9FFF7BDFF4DF68361C4F26C
:104FD0001B31A0FB0101890C47A000F00BF9C8F3BD
:104FE00000204FF00122396808F00F04002808BFA4
:104FF0004FF0807222441143C8F34026C8F3802545
:1050000041EA462139601DB1396841F48061396057
:10501000FDF734FF07463046FDF730FF06462846C9
:10502000FDF72CFF00904AF22170C0F60C004146BB
:105030003A463346019400F0DDF8FDF743FFFEF7F2
:105040008DFAFEF7A9FA64206424FBF76BFCFEF7E7
:105050007FFA48F21F51C5F2EB11A0FB010148098C
:1050600002AA0021FEF728FA03AA07CA00FB0411CE
:105070004AF26570C0F60C0000F0BCF806B0BDE85E
:10508000F08100BF53544D33322052756E74696DF8
:105090006520636F6E66696775726174696F6E2EE5
:1050A0002E2E0D0020436F726520417263682E2002
:1050B00020203A204D2564202D2025732025730DB6
:1050C0000A0000004650552050524553454E5400AA
:1050D000616E642075736564000000002048414CD7
:1050E0002076657273696F6E20203A203078253003
:1050F00038780D0A000000002073797374656D2004
:10510000636C6F636B203A202575204D487A0D0A39
:1051100000000000F0B581B032B347F2F816144633
:105120000D460120C2F20006002703E000F022F83D
:105130003770D4B131789CB11F2911D86A1E00BFD5
:1051400012F8013F75186B70013C01F101033370D7
:1051500002D01F291946F3D3551C202BE9D1E5E7CE
:105160000B46202BE5D1E1E7012000F0010001B062
:10517000F0BD000080B547F2F810C2F20000212116
:10518000FEF726FC80BD0000144810B5016821F030
:105190000101016000F04DFA11490968114BC1F39A
:1051A0000221114A012404290BD010490C600C681B
:1051B000002CFCD10D4908390B60096891420AD0D6
:1051C000FEE70B498C608C68002CFCD10B600968F1
:1051D000914200D0FEE700F083FA10BD002000E00D
:1051E000002004E0C2A507F4CDB5E8B5084C02588C
:1051F000003002400FB4054B10B503A9044A0298D1
:1052000000F074FD10BC5DF814FB0000313900089B
:10521000000000204100080218BF04200A0E18BF39
:1052200040F001004FF07F4232EA010108BF40F038
:105230000200012808BF0520704700009FED3C0ACE
:1052400063E000BF92ED003A91ED004AD2ED012AF1
:10525000D1ED013A04EE030A92ED022A91ED021A11
:10526000D2ED030AD1ED031A91ED044A03EEA20A2E
:10527000D2ED043A92ED053AD1ED052A01EE020A8B
:1052800092ED062A92ED071A01EEA00AD1ED061A58
:10529000D1ED070A04EE230AD2ED083A91ED084A4F
:1052A00002EE830AD2ED092A91ED093A01EE820A53
:1052B00092ED0A2AD1ED0A1A00EE810A92ED0B1A3C
:1052C000D1ED0B0A04EE230A91ED0C4AD1ED0D3A13
:1052D00003EE220A92ED0C3AD2ED0D2A01EE820A7B
:1052E00092ED0E2AD1ED0F1A00EE810A91ED0E1A01
:1052F000D2ED0F0A40314032103B04EE030A03EEB8
:10530000A20A01EE020A01EEA00A102B9AD206E0D0
:10531000F1EC010A5B1EB2EC011A00EE810A002BCF
:10532000F6D1D0ED000A30EE800A80ED000A704719
:105330000000000030B528B1144C031F0020216884
:105340000A4605E0084630BD9A4203D81046526826
:10535000002AF9D1002800D041680BD00468A3EBE3
:105360000005A54204D11B681C440346046002E00A
:10537000436000E023603AB11C68D51AA54203D10E
:1053800015682C441C6052685A6030BD040000202F
:1053900010B510EE104A4FF019406949002200EB99
:1053A00044002DED028B884257D8DFED660A14F0D9
:1053B000004F60EE200A14BFBEEE001AB6EE001ACF
:1053C00071EE200AFDEEE00A10EE900A00EE900A5F
:1053D000F8EEE00A9FED5C1A00EEC10A9FED5B1A41
:1053E00000EEC10ADFED5A0A9FED5A1A00EE201AAC
:1053F000DFED590A40EE010A9FED581A584B00F0B4
:10540000030100EE201A21EE000A7B4403EB810326
:10541000D3ED000A534B7B4403EB810393ED001A59
:10542000514B41EE000A7B4403EB8101801091ED6A
:10543000000A70EE800AEABB00EE100AB8EEC01A4D
:10544000DFED4A1A9FED4A0ABDEC028B01EE210AFC
:10545000BCEEC00A20EE200A10BD4FF0FF40A04372
:105460001DD04FF0CE40B0EB440F81BFF7EE000AE5
:1054700030EE200ABDEC028B10BD3E48B0EB440F6D
:1054800028BF012291D2022000F0C4F814F0004F8E
:1054900015D0BDEC028BBDE8104000F0A3B814F5A8
:1054A000000F02BF9FED340ABDEC028B10BDBDECB6
:1054B000028B00E009E0BDE8104000F087B8BDECC9
:1054C000028BBDE8104000F085B800EBD073591096
:1054D0004FF07E5202EBC15100EE101AA0EB6300B8
:1054E00002EBC05060EE200A00EE100A20EE208A87
:1054F00018EE100A88B118EE100AB0F1FF4F15D05F
:1055000018EE100AFFF786FE042808BF00F06AF8BC
:10551000B0EE480ABDEC028B10BD022000F07AF814
:10552000BDEC028BBDE8104000F05CB8022000F03A
:1055300071F8BDEC028BBDE8104000F04BB80000E4
:105540000000501E3BAAB8400070313EF4FD053704
:1055500012BB2A3D12BB2A3EFFFFFF3EFFFF7F3FEB
:105560006A2C00006E2C00003E2C00000000004B56
:1055700000007E4E0000A085000000002DE9F047ED
:1055800082460F4C10480D4E0E4F001B4FF0000886
:1055900020F007054FF0010900221146504602F0A5
:1055A00019FB002802D1306810B10020BDE8F08757
:1055B0003C60C4E90058C6F80090EDE70800002000
:1055C00054720020040000205092002030EE000AA7
:1055D000704700009FED020A20EE000A70470000AD
:1055E000000000709FED020A20EE000A70470000E4
:1055F0000000001002E008C8121F08C1002AFAD1FA
:1056000070477047002001E001C1121F002AFBD142
:105610007047000001490860704700000C0000203E
:1056200010B54169044688472069A04200D1002096
:1056300010BD012070472DE9F05F00278A4604461F
:105640003E46B94637E0A06806EB460241688068EE
:1056500001EBC20500EBC60BD8F81800006800F09B
:10566000FBFE28600120A880D8F80C008089E88023
:10567000D8F80C0000892881D8F80C004068E86050
:10568000D8F81800806828615FEA0B0009D0C0F8DC
:105690000090D8F80010416029B1498819B1012162
:1056A00002E0484603E00021016001B900207F1CB0
:1056B000BFB2761C68610CB1208800E00020B042C7
:1056C00006D9606820B150F826005FEA0008BAD118
:1056D0001FB1A0684068CAF800003846BDE8F09FD6
:1056E000704700002DE9FF5F82B00021DDE9043042
:1056F000020DDDF840B0034318D044F61050A2F27A
:10570000FF3242431514119801281FD0A5EB0B005E
:10571000401C5FEA000A4FF000064E4FDFF8389158
:10572000B046504615D5CAF1000413E01198012483
:105730004AA3012801D16FEA0B010298119AC0E92E
:105740000031C0E9024206B0BDE8F09FCBF1000095
:10575000DFE704460021404A491842EB0450CDE9F6
:10576000001012E0E00707D032463B46404649466B
:10577000FAF7E4FE8046894632463B461046194613
:10578000FAF7DCFE06460F466410002CEAD1DDE98C
:105790000401DDE90023BAF1000F06DAFAF7CEFEC4
:1057A00042464B46FAF7CAFE05E0FAF739FF424691
:1057B0004B46FAF735FF04460E460022284BFAF70F
:1057C000B7FF03D84FF0FF30014607E00022254B1A
:1057D00020463146FAF70BFEFAF791FF102409E054
:1057E000002C0ADB0A220023FAF7FCFC039B303270
:1057F0001A55641E50EA0102F2D1641C039AC4F1E6
:1058000011031444119A012A03D0012208430DD137
:105810000AE0084304D000204FF0110B119072E70A
:10582000A3EB0B056D1E0DE05B4504DD4FF00002A0
:1058300005F1010504E003DA4FF00002A5F10105CE
:10584000002AECD002981199C0E90231C0E9004564
:1058500079E70000000014400000F03F3000000035
:105860000000F0430000E03F70B505460E46488852
:105870006988884201D0002070BD308828800024CB
:105880000CE000BF716804EB44006A6801EBC001E2
:1058900002EBC0001822FAF7D6FC641C6888A0420C
:1058A000F0D8012070BD000030B500B3F9B1F2B1FD
:1058B0001269E2B10F4C1368A34203D002600129C0
:1058C00013D014E00023121D07E000BF52F823504C
:1058D000A54204D040F823505B1C8B42F6D38B4288
:1058E00005D152F82300A04201D1012030BD002093
:1058F00030BD0000DECAFAA12DE9FE4F924689466E
:10590000040003D0A08D20B1266B03E00020BDE889
:10591000FE8F00260020E082A082207BC04380070B
:1059200002D030221121DBE0B9F1000F5FD0DEB3ED
:105930003088C8B3B9F80450002756E0B068006852
:1059400000EB0710019052D070B307EB470009EB52
:10595000C001009102900889DBF818C0CA88864609
:10596000CB685043DCF804105843884219D8DBF860
:105970000C00D0F80C80904513D1D0F80880F04589
:105980000FD1406898420CD1DCF8000000F045FDD2
:10599000DBF80C10DBF81420C968D2685143884248
:1059A00003D2182212219BE021E0DBF818000068E6
:1059B00000F052FD029920F07E4259F8310020F0AB
:1059C0007E40824201D01922ECE70098006970B154
:1059D0000098808868B1A84200D30546DDE9001030
:1059E0005A4600F08FF87F1C2EB1308804E0172251
:1059F000D8E72122D6E70020B84206D9706820B146
:105A000050F827B0BBF1000F98D1BAF1000F75D054
:105A1000A08D012806D9266B0C3603D0308808B13A
:105A2000002759E018225AE0B068006800EB071917
:105A30003FD0B9F1000F3CD007EB470001900AEBD3
:105A4000C000D8F818C002898346C3889646C0684B
:105A50005A43DCF8041042438A42E3D8D8F80C20B9
:105A60000092D2689A42DDD1009A93687345D9D1E9
:105A7000009A52688242D5D1DCF8000000F0CDFCDB
:105A8000D8F80C10D8F81420C968D268514388425D
:105A9000C8D3D8F81800006800F0DEFC20F07E4281
:105AA00001985AF8300020F07E40824203D019223B
:105AB00015E0172213E0DBF810000028F9D0BBF83E
:105AC000040058B1A84200D305465946424648460C
:105AD00000F018F87F1C3EB1308806E02122132127
